{
  "contractName": "Transaction",
  "abi": [
    {
      "constant": true,
      "inputs": [],
      "name": "admin2",
      "outputs": [
        {
          "name": "",
          "type": "address"
        }
      ],
      "payable": false,
      "stateMutability": "view",
      "type": "function"
    },
    {
      "constant": true,
      "inputs": [],
      "name": "admin1",
      "outputs": [
        {
          "name": "",
          "type": "address"
        }
      ],
      "payable": false,
      "stateMutability": "view",
      "type": "function"
    },
    {
      "constant": true,
      "inputs": [],
      "name": "admin3",
      "outputs": [
        {
          "name": "",
          "type": "address"
        }
      ],
      "payable": false,
      "stateMutability": "view",
      "type": "function"
    },
    {
      "constant": true,
      "inputs": [],
      "name": "total",
      "outputs": [
        {
          "name": "",
          "type": "uint256"
        }
      ],
      "payable": false,
      "stateMutability": "view",
      "type": "function"
    },
    {
      "constant": true,
      "inputs": [],
      "name": "user",
      "outputs": [
        {
          "name": "",
          "type": "address"
        }
      ],
      "payable": false,
      "stateMutability": "view",
      "type": "function"
    },
    {
      "constant": true,
      "inputs": [
        {
          "name": "",
          "type": "address"
        }
      ],
      "name": "status",
      "outputs": [
        {
          "name": "",
          "type": "bool"
        }
      ],
      "payable": false,
      "stateMutability": "view",
      "type": "function"
    },
    {
      "constant": true,
      "inputs": [],
      "name": "i",
      "outputs": [
        {
          "name": "",
          "type": "uint256"
        }
      ],
      "payable": false,
      "stateMutability": "view",
      "type": "function"
    },
    {
      "inputs": [
        {
          "name": "_admin2",
          "type": "address"
        },
        {
          "name": "_admin3",
          "type": "address"
        }
      ],
      "payable": false,
      "stateMutability": "nonpayable",
      "type": "constructor"
    },
    {
      "payable": true,
      "stateMutability": "payable",
      "type": "fallback"
    },
    {
      "anonymous": false,
      "inputs": [
        {
          "indexed": true,
          "name": "addr",
          "type": "address"
        },
        {
          "indexed": false,
          "name": "amount",
          "type": "uint256"
        }
      ],
      "name": "Deposit",
      "type": "event"
    },
    {
      "anonymous": false,
      "inputs": [
        {
          "indexed": true,
          "name": "addr",
          "type": "address"
        }
      ],
      "name": "Withdraw",
      "type": "event"
    },
    {
      "constant": false,
      "inputs": [],
      "name": "withdraw",
      "outputs": [],
      "payable": false,
      "stateMutability": "nonpayable",
      "type": "function"
    },
    {
      "constant": false,
      "inputs": [
        {
          "name": "_newAdmin1",
          "type": "address"
        }
      ],
      "name": "changeAdmin1",
      "outputs": [],
      "payable": false,
      "stateMutability": "nonpayable",
      "type": "function"
    },
    {
      "constant": false,
      "inputs": [
        {
          "name": "_newAdmin2",
          "type": "address"
        }
      ],
      "name": "changeAdmin2",
      "outputs": [],
      "payable": false,
      "stateMutability": "nonpayable",
      "type": "function"
    },
    {
      "constant": false,
      "inputs": [
        {
          "name": "_newAdmin3",
          "type": "address"
        }
      ],
      "name": "changeAdmin3",
      "outputs": [],
      "payable": false,
      "stateMutability": "nonpayable",
      "type": "function"
    },
    {
      "constant": false,
      "inputs": [],
      "name": "reset",
      "outputs": [],
      "payable": false,
      "stateMutability": "nonpayable",
      "type": "function"
    }
  ],
  "bytecode": "0x60806040526000600555600160065534801561001a57600080fd5b50d3801561002757600080fd5b50d2801561003457600080fd5b506040516040806113518339810180604052604081101561005457600080fd5b81019080805190602001909291908051906020019092919050505033600360006101000a81548173ffffffffffffffffffffffffffffffffffffffff021916908373ffffffffffffffffffffffffffffffffffffffff160217905550336000806101000a81548173ffffffffffffffffffffffffffffffffffffffff021916908373ffffffffffffffffffffffffffffffffffffffff16021790555081600160006101000a81548173ffffffffffffffffffffffffffffffffffffffff021916908373ffffffffffffffffffffffffffffffffffffffff16021790555080600260006101000a81548173ffffffffffffffffffffffffffffffffffffffff021916908373ffffffffffffffffffffffffffffffffffffffff1602179055506000600460008060009054906101000a900473ffffffffffffffffffffffffffffffffffffffff1673ffffffffffffffffffffffffffffffffffffffff1673ffffffffffffffffffffffffffffffffffffffff16815260200190815260200160002060006101000a81548160ff021916908315150217905550600060046000600160009054906101000a900473ffffffffffffffffffffffffffffffffffffffff1673ffffffffffffffffffffffffffffffffffffffff1673ffffffffffffffffffffffffffffffffffffffff16815260200190815260200160002060006101000a81548160ff021916908315150217905550600060046000600260009054906101000a900473ffffffffffffffffffffffffffffffffffffffff1673ffffffffffffffffffffffffffffffffffffffff1673ffffffffffffffffffffffffffffffffffffffff16815260200190815260200160002060006101000a81548160ff0219169083151502179055505050611061806102f06000396000f3fe6080604052600436106100c4576000357c0100000000000000000000000000000000000000000000000000000000900480634f8632ba116100815780634f8632ba14610303578063645b8b1b14610374578063d826f88f146103f7578063e21ef62614610428578063e5aa3d5814610493578063f0fd1160146104d8576100c4565b806306a8f8a2146100cf578063115976c4146101405780631de46a78146101b15780632ddbd13a146102225780633ccfd60b146102675780634496ff8f14610298575b6100cd34610543565b005b3480156100db57600080fd5b50d380156100e857600080fd5b50d280156100f557600080fd5b506100fe6105a4565b604051808273ffffffffffffffffffffffffffffffffffffffff1673ffffffffffffffffffffffffffffffffffffffff16815260200191505060405180910390f35b34801561014c57600080fd5b50d3801561015957600080fd5b50d2801561016657600080fd5b5061016f6105ca565b604051808273ffffffffffffffffffffffffffffffffffffffff1673ffffffffffffffffffffffffffffffffffffffff16815260200191505060405180910390f35b3480156101bd57600080fd5b50d380156101ca57600080fd5b50d280156101d757600080fd5b506101e06105ef565b604051808273ffffffffffffffffffffffffffffffffffffffff1673ffffffffffffffffffffffffffffffffffffffff16815260200191505060405180910390f35b34801561022e57600080fd5b50d3801561023b57600080fd5b50d2801561024857600080fd5b50610251610615565b6040518082815260200191505060405180910390f35b34801561027357600080fd5b50d3801561028057600080fd5b50d2801561028d57600080fd5b5061029661061b565b005b3480156102a457600080fd5b50d380156102b157600080fd5b50d280156102be57600080fd5b50610301600480360360208110156102d557600080fd5b81019080803573ffffffffffffffffffffffffffffffffffffffff169060200190929190505050610a93565b005b34801561030f57600080fd5b50d3801561031c57600080fd5b50d2801561032957600080fd5b50610332610b9c565b604051808273ffffffffffffffffffffffffffffffffffffffff1673ffffffffffffffffffffffffffffffffffffffff16815260200191505060405180910390f35b34801561038057600080fd5b50d3801561038d57600080fd5b50d2801561039a57600080fd5b506103dd600480360360208110156103b157600080fd5b81019080803573ffffffffffffffffffffffffffffffffffffffff169060200190929190505050610bc2565b604051808215151515815260200191505060405180910390f35b34801561040357600080fd5b50d3801561041057600080fd5b50d2801561041d57600080fd5b50610426610be2565b005b34801561043457600080fd5b50d3801561044157600080fd5b50d2801561044e57600080fd5b506104916004803603602081101561046557600080fd5b81019080803573ffffffffffffffffffffffffffffffffffffffff169060200190929190505050610e1e565b005b34801561049f57600080fd5b50d380156104ac57600080fd5b50d280156104b957600080fd5b506104c2610f27565b6040518082815260200191505060405180910390f35b3480156104e457600080fd5b50d380156104f157600080fd5b50d280156104fe57600080fd5b506105416004803603602081101561051557600080fd5b81019080803573ffffffffffffffffffffffffffffffffffffffff169060200190929190505050610f2d565b005b806005600082825401925050819055503373ffffffffffffffffffffffffffffffffffffffff167fe1fffcc4923d04b559f4d29a8bfc6cda04eb5b0d3c460751c2402c5c5cc9109c826040518082815260200191505060405180910390a250565b600160009054906101000a900473ffffffffffffffffffffffffffffffffffffffff1681565b6000809054906101000a900473ffffffffffffffffffffffffffffffffffffffff1681565b600260009054906101000a900473ffffffffffffffffffffffffffffffffffffffff1681565b60055481565b6000809054906101000a900473ffffffffffffffffffffffffffffffffffffffff1673ffffffffffffffffffffffffffffffffffffffff163373ffffffffffffffffffffffffffffffffffffffff1614806106c35750600160009054906101000a900473ffffffffffffffffffffffffffffffffffffffff1673ffffffffffffffffffffffffffffffffffffffff163373ffffffffffffffffffffffffffffffffffffffff16145b8061071b5750600260009054906101000a900473ffffffffffffffffffffffffffffffffffffffff1673ffffffffffffffffffffffffffffffffffffffff163373ffffffffffffffffffffffffffffffffffffffff16145b151561078f576040517f08c379a00000000000000000000000000000000000000000000000000000000081526004018080602001828103825260028152602001807f4e4100000000000000000000000000000000000000000000000000000000000081525060200191505060405180910390fd5b60001515600460003373ffffffffffffffffffffffffffffffffffffffff1673ffffffffffffffffffffffffffffffffffffffff16815260200190815260200160002060009054906101000a900460ff161515141515610857576040517f08c379a000000000000000000000000000000000000000000000000000000000815260040180806020018281038252600f8152602001807f71756f746120636f6d706c65746564000000000000000000000000000000000081525060200191505060405180910390fd5b600160065414156108e8573373ffffffffffffffffffffffffffffffffffffffff166108fc612710610d053073ffffffffffffffffffffffffffffffffffffffff1631028115156108a457fe5b049081150290604051600060405180830381858888f193505050501580156108d0573d6000803e3d6000fd5b506006600081548092919060010191905055506109f6565b60026006541415610979573373ffffffffffffffffffffffffffffffffffffffff166108fc6127106113873073ffffffffffffffffffffffffffffffffffffffff16310281151561093557fe5b049081150290604051600060405180830381858888f19350505050158015610961573d6000803e3d6000fd5b506006600081548092919060010191905055506109f5565b600360065414156109f4573373ffffffffffffffffffffffffffffffffffffffff166108fc61271061270f3073ffffffffffffffffffffffffffffffffffffffff1631028115156109c657fe5b049081150290604051600060405180830381858888f193505050501580156109f2573d6000803e3d6000fd5b505b5b5b6001600460003373ffffffffffffffffffffffffffffffffffffffff1673ffffffffffffffffffffffffffffffffffffffff16815260200190815260200160002060006101000a81548160ff0219169083151502179055503373ffffffffffffffffffffffffffffffffffffffff167ff67611512e0a2d90c96fd3f08dca4971bc45fba9dc679eabe839a32abbe58a8e60405160405180910390a2565b600360009054906101000a900473ffffffffffffffffffffffffffffffffffffffff1673ffffffffffffffffffffffffffffffffffffffff163373ffffffffffffffffffffffffffffffffffffffff16141515610b58576040517f08c379a000000000000000000000000000000000000000000000000000000000815260040180806020018281038252600b8152602001807f4e6f7420616c6c6f77656400000000000000000000000000000000000000000081525060200191505060405180910390fd5b80600260006101000a81548173ffffffffffffffffffffffffffffffffffffffff021916908373ffffffffffffffffffffffffffffffffffffffff16021790555050565b600360009054906101000a900473ffffffffffffffffffffffffffffffffffffffff1681565b60046020528060005260406000206000915054906101000a900460ff1681565b600360009054906101000a900473ffffffffffffffffffffffffffffffffffffffff1673ffffffffffffffffffffffffffffffffffffffff163373ffffffffffffffffffffffffffffffffffffffff16141515610ca7576040517f08c379a000000000000000000000000000000000000000000000000000000000815260040180806020018281038252600b8152602001807f4e6f7420616c6c6f77656400000000000000000000000000000000000000000081525060200191505060405180910390fd5b6000600460008060009054906101000a900473ffffffffffffffffffffffffffffffffffffffff1673ffffffffffffffffffffffffffffffffffffffff1673ffffffffffffffffffffffffffffffffffffffff16815260200190815260200160002060006101000a81548160ff021916908315150217905550600060046000600160009054906101000a900473ffffffffffffffffffffffffffffffffffffffff1673ffffffffffffffffffffffffffffffffffffffff1673ffffffffffffffffffffffffffffffffffffffff16815260200190815260200160002060006101000a81548160ff021916908315150217905550600060046000600260009054906101000a900473ffffffffffffffffffffffffffffffffffffffff1673ffffffffffffffffffffffffffffffffffffffff1673ffffffffffffffffffffffffffffffffffffffff16815260200190815260200160002060006101000a81548160ff0219169083151502179055506001600681905550565b600360009054906101000a900473ffffffffffffffffffffffffffffffffffffffff1673ffffffffffffffffffffffffffffffffffffffff163373ffffffffffffffffffffffffffffffffffffffff16141515610ee3576040517f08c379a000000000000000000000000000000000000000000000000000000000815260040180806020018281038252600b8152602001807f4e6f7420616c6c6f77656400000000000000000000000000000000000000000081525060200191505060405180910390fd5b80600160006101000a81548173ffffffffffffffffffffffffffffffffffffffff021916908373ffffffffffffffffffffffffffffffffffffffff16021790555050565b60065481565b600360009054906101000a900473ffffffffffffffffffffffffffffffffffffffff1673ffffffffffffffffffffffffffffffffffffffff163373ffffffffffffffffffffffffffffffffffffffff16141515610ff2576040517f08c379a000000000000000000000000000000000000000000000000000000000815260040180806020018281038252600b8152602001807f4e6f7420616c6c6f77656400000000000000000000000000000000000000000081525060200191505060405180910390fd5b806000806101000a81548173ffffffffffffffffffffffffffffffffffffffff021916908373ffffffffffffffffffffffffffffffffffffffff1602179055505056fea165627a7a7230582037e179ea741bc79cb770ec7bc0f74676fe663d8aa0109092fcee15b9b4a2d5fa0029",
  "source": "pragma solidity 0.5.4;\r\n\r\ncontract Transaction {\r\n\r\n    address payable public admin1 ; \r\n    address payable public admin2 ; \r\n    address payable public admin3 ; \r\n    address payable public user ;\r\n\r\n    constructor( \r\n                address payable _admin2,  \r\n                address payable _admin3 \r\n                 ) public {\r\n        \r\n        user = msg.sender;             \r\n        admin1 = msg.sender;\r\n        admin2 = _admin2;\r\n        admin3 = _admin3;\r\n\r\n        status[admin1] = false;\r\n        status[admin2] = false;\r\n        status[admin3] = false;\r\n    }\r\n    mapping(address => bool) public status ;\r\n    event Deposit(address indexed addr, uint256 amount) ;\r\n    event Withdraw(address indexed addr ) ;\r\n\r\n     uint256 public total = 0; \r\n     uint256 public i = 1;\r\n     \r\n    function() payable external {\r\n        _deposit(msg.value);\r\n     }\r\n\r\n     function _deposit(uint256 _amount) private {\r\n         total += _amount;\r\n         emit Deposit(msg.sender, _amount);\r\n     }\r\n \r\n    function withdraw() external {\r\n     require(msg.sender == admin1 || msg.sender == admin2 || msg.sender == admin3, \"NA\");\r\n     require(status[msg.sender] == false, \"quota completed\");\r\n         if(i==1){\r\n            msg.sender.transfer(address(this).balance*3333/10000);\r\n            i++;\r\n\r\n        } else if(i==2) {\r\n            msg.sender.transfer(address(this).balance*4999/10000);\r\n            i++;\r\n\r\n        } else if(i==3) {\r\n            msg.sender.transfer(address(this).balance*9999/10000); \r\n        }\r\n\r\n        status[msg.sender] = true; \r\n        emit Withdraw(msg.sender );\r\n \r\n    \r\n }\r\n    function changeAdmin1(address payable _newAdmin1) public {\r\n\t\trequire( msg.sender == user, \"Not allowed\");\r\n\t\tadmin1  = _newAdmin1;\r\n\t} \r\n    function changeAdmin2(address payable _newAdmin2) public {\r\n\t\trequire( msg.sender == user, \"Not allowed\");\r\n\t\tadmin2  = _newAdmin2;\r\n\t} \r\n    function changeAdmin3(address payable _newAdmin3) public {\r\n\t\trequire( msg.sender == user, \"Not allowed\");\r\n\t\tadmin3  = _newAdmin3;\r\n\t} \r\n    function reset( ) public {\r\n\t\trequire( msg.sender == user, \"Not allowed\");\r\n\t    status[admin1] = false;\r\n        status[admin2] = false;\r\n        status[admin3] = false;\r\n         i = 1; \r\n \t} \r\n}",
  "sourcePath": "C:/Users/RAAKESH/Desktop/Coding/TronDapp/AAATRON BEAST 2/Code/contracts/atransa.sol",
  "compiler": {
    "name": "solc",
    "version": "0.5.4+commit.d15a3125.mod.Emscripten.clang"
  },
  "schemaVersion": "2.0.1",
  "updatedAt": "2021-02-18T09:13:30.052Z"
}