{
  "contractName": "TronBeastv2",
  "abi": [
    {
      "constant": true,
      "inputs": [],
      "name": "tbt",
      "outputs": [
        {
          "name": "",
          "type": "address"
        }
      ],
      "payable": false,
      "stateMutability": "view",
      "type": "function"
    },
    {
      "constant": true,
      "inputs": [],
      "name": "one_day",
      "outputs": [
        {
          "name": "",
          "type": "uint256"
        }
      ],
      "payable": false,
      "stateMutability": "view",
      "type": "function"
    },
    {
      "constant": true,
      "inputs": [],
      "name": "Lower_H_C_B",
      "outputs": [
        {
          "name": "",
          "type": "uint256"
        }
      ],
      "payable": false,
      "stateMutability": "view",
      "type": "function"
    },
    {
      "constant": true,
      "inputs": [],
      "name": "H_C_B",
      "outputs": [
        {
          "name": "",
          "type": "uint256"
        }
      ],
      "payable": false,
      "stateMutability": "view",
      "type": "function"
    },
    {
      "constant": true,
      "inputs": [],
      "name": "two_days",
      "outputs": [
        {
          "name": "",
          "type": "uint256"
        }
      ],
      "payable": false,
      "stateMutability": "view",
      "type": "function"
    },
    {
      "constant": true,
      "inputs": [],
      "name": "contract_status",
      "outputs": [
        {
          "name": "",
          "type": "bool"
        }
      ],
      "payable": false,
      "stateMutability": "view",
      "type": "function"
    },
    {
      "constant": true,
      "inputs": [],
      "name": "six_percent",
      "outputs": [
        {
          "name": "",
          "type": "uint256"
        }
      ],
      "payable": false,
      "stateMutability": "view",
      "type": "function"
    },
    {
      "constant": true,
      "inputs": [],
      "name": "divider",
      "outputs": [
        {
          "name": "",
          "type": "uint256"
        }
      ],
      "payable": false,
      "stateMutability": "view",
      "type": "function"
    },
    {
      "constant": true,
      "inputs": [],
      "name": "tbt_price",
      "outputs": [
        {
          "name": "",
          "type": "uint256"
        }
      ],
      "payable": false,
      "stateMutability": "view",
      "type": "function"
    },
    {
      "constant": true,
      "inputs": [],
      "name": "min_deposit",
      "outputs": [
        {
          "name": "",
          "type": "uint256"
        }
      ],
      "payable": false,
      "stateMutability": "view",
      "type": "function"
    },
    {
      "constant": true,
      "inputs": [],
      "name": "user",
      "outputs": [
        {
          "name": "",
          "type": "address"
        }
      ],
      "payable": false,
      "stateMutability": "view",
      "type": "function"
    },
    {
      "constant": true,
      "inputs": [],
      "name": "total_tbt_sent",
      "outputs": [
        {
          "name": "",
          "type": "uint256"
        }
      ],
      "payable": false,
      "stateMutability": "view",
      "type": "function"
    },
    {
      "constant": true,
      "inputs": [
        {
          "name": "",
          "type": "uint256"
        }
      ],
      "name": "deposit_cycles",
      "outputs": [
        {
          "name": "",
          "type": "uint256"
        }
      ],
      "payable": false,
      "stateMutability": "view",
      "type": "function"
    },
    {
      "constant": true,
      "inputs": [],
      "name": "Higher_H_C_B",
      "outputs": [
        {
          "name": "",
          "type": "uint256"
        }
      ],
      "payable": false,
      "stateMutability": "view",
      "type": "function"
    },
    {
      "constant": true,
      "inputs": [],
      "name": "tbt_min_deposit",
      "outputs": [
        {
          "name": "",
          "type": "uint256"
        }
      ],
      "payable": false,
      "stateMutability": "view",
      "type": "function"
    },
    {
      "constant": true,
      "inputs": [],
      "name": "owner",
      "outputs": [
        {
          "name": "",
          "type": "address"
        }
      ],
      "payable": false,
      "stateMutability": "view",
      "type": "function"
    },
    {
      "constant": true,
      "inputs": [],
      "name": "total_withdraw",
      "outputs": [
        {
          "name": "",
          "type": "uint256"
        }
      ],
      "payable": false,
      "stateMutability": "view",
      "type": "function"
    },
    {
      "constant": true,
      "inputs": [
        {
          "name": "",
          "type": "address"
        }
      ],
      "name": "users",
      "outputs": [
        {
          "name": "upline",
          "type": "address"
        },
        {
          "name": "referrals",
          "type": "uint256"
        },
        {
          "name": "payouts",
          "type": "uint256"
        },
        {
          "name": "direct_bonus",
          "type": "uint256"
        },
        {
          "name": "deposit_amount",
          "type": "uint256"
        },
        {
          "name": "deposit_time",
          "type": "uint256"
        },
        {
          "name": "payout_time",
          "type": "uint256"
        },
        {
          "name": "temp_directs_count",
          "type": "uint256"
        },
        {
          "name": "isActive",
          "type": "bool"
        },
        {
          "name": "daily_roi",
          "type": "uint256"
        },
        {
          "name": "last_pay",
          "type": "uint256"
        }
      ],
      "payable": false,
      "stateMutability": "view",
      "type": "function"
    },
    {
      "constant": true,
      "inputs": [
        {
          "name": "",
          "type": "uint256"
        }
      ],
      "name": "ref_bonuses",
      "outputs": [
        {
          "name": "",
          "type": "uint256"
        }
      ],
      "payable": false,
      "stateMutability": "view",
      "type": "function"
    },
    {
      "constant": true,
      "inputs": [
        {
          "name": "",
          "type": "address"
        }
      ],
      "name": "users2",
      "outputs": [
        {
          "name": "total_deposits",
          "type": "uint256"
        },
        {
          "name": "total_payouts",
          "type": "uint256"
        },
        {
          "name": "total_structure",
          "type": "uint256"
        },
        {
          "name": "cycle",
          "type": "uint256"
        },
        {
          "name": "tbt_from_withdrawal",
          "type": "uint256"
        },
        {
          "name": "tbt_from_deposit",
          "type": "uint256"
        },
        {
          "name": "total_tbt",
          "type": "uint256"
        }
      ],
      "payable": false,
      "stateMutability": "view",
      "type": "function"
    },
    {
      "constant": true,
      "inputs": [],
      "name": "fifteen_percent",
      "outputs": [
        {
          "name": "",
          "type": "uint256"
        }
      ],
      "payable": false,
      "stateMutability": "view",
      "type": "function"
    },
    {
      "constant": true,
      "inputs": [],
      "name": "twenty_four_hours_deposit_value",
      "outputs": [
        {
          "name": "",
          "type": "uint256"
        }
      ],
      "payable": false,
      "stateMutability": "view",
      "type": "function"
    },
    {
      "constant": true,
      "inputs": [],
      "name": "total_deposited",
      "outputs": [
        {
          "name": "",
          "type": "uint256"
        }
      ],
      "payable": false,
      "stateMutability": "view",
      "type": "function"
    },
    {
      "constant": true,
      "inputs": [],
      "name": "total_users",
      "outputs": [
        {
          "name": "",
          "type": "uint256"
        }
      ],
      "payable": false,
      "stateMutability": "view",
      "type": "function"
    },
    {
      "constant": true,
      "inputs": [],
      "name": "admin",
      "outputs": [
        {
          "name": "",
          "type": "address"
        }
      ],
      "payable": false,
      "stateMutability": "view",
      "type": "function"
    },
    {
      "inputs": [
        {
          "name": "_tbt",
          "type": "address"
        },
        {
          "name": "_owner",
          "type": "address"
        },
        {
          "name": "_user",
          "type": "address"
        },
        {
          "name": "_admin",
          "type": "address"
        }
      ],
      "payable": false,
      "stateMutability": "nonpayable",
      "type": "constructor"
    },
    {
      "payable": true,
      "stateMutability": "payable",
      "type": "fallback"
    },
    {
      "anonymous": false,
      "inputs": [
        {
          "indexed": true,
          "name": "addr",
          "type": "address"
        },
        {
          "indexed": true,
          "name": "upline",
          "type": "address"
        }
      ],
      "name": "Upline",
      "type": "event"
    },
    {
      "anonymous": false,
      "inputs": [
        {
          "indexed": true,
          "name": "addr",
          "type": "address"
        },
        {
          "indexed": false,
          "name": "amount",
          "type": "uint256"
        }
      ],
      "name": "NewDeposit",
      "type": "event"
    },
    {
      "anonymous": false,
      "inputs": [
        {
          "indexed": true,
          "name": "addr",
          "type": "address"
        },
        {
          "indexed": true,
          "name": "from",
          "type": "address"
        },
        {
          "indexed": false,
          "name": "amount",
          "type": "uint256"
        }
      ],
      "name": "DirectPayout",
      "type": "event"
    },
    {
      "anonymous": false,
      "inputs": [
        {
          "indexed": true,
          "name": "addr",
          "type": "address"
        },
        {
          "indexed": false,
          "name": "amount",
          "type": "uint256"
        }
      ],
      "name": "Withdraw",
      "type": "event"
    },
    {
      "anonymous": false,
      "inputs": [
        {
          "indexed": true,
          "name": "addr",
          "type": "address"
        },
        {
          "indexed": false,
          "name": "amount",
          "type": "uint256"
        }
      ],
      "name": "LimitReached",
      "type": "event"
    },
    {
      "constant": false,
      "inputs": [
        {
          "name": "_upline",
          "type": "address"
        }
      ],
      "name": "deposit",
      "outputs": [],
      "payable": true,
      "stateMutability": "payable",
      "type": "function"
    },
    {
      "constant": false,
      "inputs": [
        {
          "name": "_addr",
          "type": "address"
        }
      ],
      "name": "withdraw",
      "outputs": [],
      "payable": false,
      "stateMutability": "nonpayable",
      "type": "function"
    },
    {
      "constant": true,
      "inputs": [],
      "name": "getContractBalance",
      "outputs": [
        {
          "name": "",
          "type": "uint256"
        }
      ],
      "payable": false,
      "stateMutability": "view",
      "type": "function"
    },
    {
      "constant": false,
      "inputs": [
        {
          "name": "_newAdmin1",
          "type": "address"
        }
      ],
      "name": "changeAdmin1",
      "outputs": [],
      "payable": false,
      "stateMutability": "nonpayable",
      "type": "function"
    },
    {
      "constant": true,
      "inputs": [],
      "name": "getAdmin",
      "outputs": [
        {
          "name": "",
          "type": "address"
        }
      ],
      "payable": false,
      "stateMutability": "view",
      "type": "function"
    },
    {
      "constant": true,
      "inputs": [],
      "name": "getUser",
      "outputs": [
        {
          "name": "",
          "type": "address"
        }
      ],
      "payable": false,
      "stateMutability": "view",
      "type": "function"
    },
    {
      "constant": true,
      "inputs": [],
      "name": "getNow",
      "outputs": [
        {
          "name": "",
          "type": "uint256"
        }
      ],
      "payable": false,
      "stateMutability": "view",
      "type": "function"
    },
    {
      "constant": true,
      "inputs": [],
      "name": "getPaySecs",
      "outputs": [
        {
          "name": "",
          "type": "uint256"
        }
      ],
      "payable": false,
      "stateMutability": "view",
      "type": "function"
    },
    {
      "constant": true,
      "inputs": [
        {
          "name": "_addr",
          "type": "address"
        }
      ],
      "name": "getROI",
      "outputs": [
        {
          "name": "roi",
          "type": "uint256"
        }
      ],
      "payable": false,
      "stateMutability": "view",
      "type": "function"
    },
    {
      "constant": true,
      "inputs": [
        {
          "name": "_addr",
          "type": "address"
        }
      ],
      "name": "userInfo",
      "outputs": [
        {
          "name": "upline",
          "type": "address"
        },
        {
          "name": "deposit_time",
          "type": "uint256"
        },
        {
          "name": "payout_time",
          "type": "uint256"
        },
        {
          "name": "deposit_amount",
          "type": "uint256"
        },
        {
          "name": "direct_bonus",
          "type": "uint256"
        },
        {
          "name": "user_status",
          "type": "bool"
        }
      ],
      "payable": false,
      "stateMutability": "view",
      "type": "function"
    },
    {
      "constant": true,
      "inputs": [
        {
          "name": "_addr",
          "type": "address"
        }
      ],
      "name": "tbtInfo",
      "outputs": [
        {
          "name": "from_deposit",
          "type": "uint256"
        },
        {
          "name": "from_withdrawal",
          "type": "uint256"
        },
        {
          "name": "total_tbt1",
          "type": "uint256"
        },
        {
          "name": "tbt_bal",
          "type": "uint256"
        },
        {
          "name": "contract_tbt_bal",
          "type": "uint256"
        }
      ],
      "payable": false,
      "stateMutability": "view",
      "type": "function"
    },
    {
      "constant": true,
      "inputs": [
        {
          "name": "_addr",
          "type": "address"
        }
      ],
      "name": "userInfo2",
      "outputs": [
        {
          "name": "temp_directs_count",
          "type": "uint256"
        },
        {
          "name": "last_pay",
          "type": "uint256"
        },
        {
          "name": "daily_roi",
          "type": "uint256"
        },
        {
          "name": "payouts",
          "type": "uint256"
        },
        {
          "name": "my_cycle",
          "type": "uint256"
        }
      ],
      "payable": false,
      "stateMutability": "view",
      "type": "function"
    },
    {
      "constant": true,
      "inputs": [
        {
          "name": "_addr",
          "type": "address"
        }
      ],
      "name": "levelInfo",
      "outputs": [
        {
          "name": "level1",
          "type": "uint256"
        },
        {
          "name": "level2",
          "type": "uint256"
        },
        {
          "name": "level3",
          "type": "uint256"
        }
      ],
      "payable": false,
      "stateMutability": "view",
      "type": "function"
    },
    {
      "constant": true,
      "inputs": [],
      "name": "cycleInfo",
      "outputs": [
        {
          "name": "cycle1",
          "type": "uint256"
        },
        {
          "name": "cycle2",
          "type": "uint256"
        },
        {
          "name": "cycle3",
          "type": "uint256"
        },
        {
          "name": "cycle4",
          "type": "uint256"
        },
        {
          "name": "cycle5",
          "type": "uint256"
        }
      ],
      "payable": false,
      "stateMutability": "view",
      "type": "function"
    },
    {
      "constant": true,
      "inputs": [
        {
          "name": "_addr",
          "type": "address"
        }
      ],
      "name": "userInfoTotals",
      "outputs": [
        {
          "name": "referrals",
          "type": "uint256"
        },
        {
          "name": "total_deposits",
          "type": "uint256"
        },
        {
          "name": "total_payouts",
          "type": "uint256"
        },
        {
          "name": "total_structure",
          "type": "uint256"
        }
      ],
      "payable": false,
      "stateMutability": "view",
      "type": "function"
    },
    {
      "constant": true,
      "inputs": [],
      "name": "contractInfo",
      "outputs": [
        {
          "name": "_total_users",
          "type": "uint256"
        },
        {
          "name": "_total_deposited",
          "type": "uint256"
        },
        {
          "name": "_total_withdraw",
          "type": "uint256"
        },
        {
          "name": "H_C_B1",
          "type": "uint256"
        },
        {
          "name": "Higher_H_C_B1",
          "type": "uint256"
        },
        {
          "name": "Lower_H_C_B1",
          "type": "uint256"
        }
      ],
      "payable": false,
      "stateMutability": "view",
      "type": "function"
    }
  ],
  "bytecode": "0x60806040526000600355600060045560006005556001600660006101000a81548160ff0219169083151502179055506302faf0806007556001600a553480156200004857600080fd5b50d380156200005657600080fd5b50d280156200006457600080fd5b5060405160808062004b2c833981018060405260808110156200008657600080fd5b810190808051906020019092919080519060200190929190805190602001909291908051906020019092919050505082600e60006101000a81548173ffffffffffffffffffffffffffffffffffffffff021916908373ffffffffffffffffffffffffffffffffffffffff160217905550836000806101000a81548173ffffffffffffffffffffffffffffffffffffffff021916908373ffffffffffffffffffffffffffffffffffffffff16021790555080600f60006101000a81548173ffffffffffffffffffffffffffffffffffffffff021916908373ffffffffffffffffffffffffffffffffffffffff16021790555081601060006101000a81548173ffffffffffffffffffffffffffffffffffffffff021916908373ffffffffffffffffffffffffffffffffffffffff160217905550600260039080600181540180825580915050906001820390600052602060002001600090919290919091505550600280908060018154018082558091505090600182039060005260206000200160009091929091909150555060026001908060018154018082558091505090600182039060005260206000200160009091929091909150555060016301c9c38090806001815401808255809150509060018203906000526020600020016000909192909190915055506001630393870090806001815401808255809150509060018203906000526020600020016000909192909190915055506001630773594090806001815401808255809150509060018203906000526020600020016000909192909190915055506001630ee6b28090806001815401808255809150509060018203906000526020600020016000909192909190915055506001631dcd65009080600181540180825580915050906001820390600052602060002001600090919290919091505550624c4b4060086000600e60009054906101000a900473ffffffffffffffffffffffffffffffffffffffff1673ffffffffffffffffffffffffffffffffffffffff1673ffffffffffffffffffffffffffffffffffffffff1681526020019081526020016000206004018190555061025860086000600e60009054906101000a900473ffffffffffffffffffffffffffffffffffffffff1673ffffffffffffffffffffffffffffffffffffffff1673ffffffffffffffffffffffffffffffffffffffff16815260200190815260200160002060090181905550603c60020260086000600e60009054906101000a900473ffffffffffffffffffffffffffffffffffffffff1673ffffffffffffffffffffffffffffffffffffffff1673ffffffffffffffffffffffffffffffffffffffff16815260200190815260200160002060060181905550600160086000600e60009054906101000a900473ffffffffffffffffffffffffffffffffffffffff1673ffffffffffffffffffffffffffffffffffffffff1673ffffffffffffffffffffffffffffffffffffffff16815260200190815260200160002060080160006101000a81548160ff0219169083151502179055504260086000600e60009054906101000a900473ffffffffffffffffffffffffffffffffffffffff1673ffffffffffffffffffffffffffffffffffffffff1673ffffffffffffffffffffffffffffffffffffffff168152602001908152602001600020600501819055504260086000600e60009054906101000a900473ffffffffffffffffffffffffffffffffffffffff1673ffffffffffffffffffffffffffffffffffffffff1673ffffffffffffffffffffffffffffffffffffffff168152602001908152602001600020600a0181905550624c4b4060096000600e60009054906101000a900473ffffffffffffffffffffffffffffffffffffffff1673ffffffffffffffffffffffffffffffffffffffff1673ffffffffffffffffffffffffffffffffffffffff16815260200190815260200160002060000160008282540192505081905550505050506144e2806200064a6000396000f3fe608060405260043610610263576000357c01000000000000000000000000000000000000000000000000000000009004806374c1dbde11610156578063bf39a89c116100d3578063de560cca11610097578063de560cca1461107b578063e7cc62bd146110c0578063ed9dbced14611105578063f0fd116014611184578063f340fa01146111ef578063f851a4401461123357610263565b8063bf39a89c14610e12578063c3bfeb5314610ebb578063c7b0e3af14610f56578063ca7c400314610f9b578063daceca071461103657610263565b806390d9f58a1161011a57806390d9f58a14610b9d5780639a8318f414610c2a578063a87430ba14610c6f578063b7d9f0d214610d64578063bbe4fd5014610dcd57610263565b806374c1dbde146109c8578063832880e714610a31578063871a1eb214610aa25780638d38d01f14610ae75780638da5cb5b14610b2c57610263565b8063378efa37116101e457806358553baa116101a857806358553baa146107d85780636582547a146108395780636e9960c31461087e5780636f9fb98a146108ef57806374b95b2d1461093457610263565b8063378efa371461062d57806340fc9f6d146106725780634d5f811e146106b75780634f8632ba146106fc57806351cff8d91461076d57610263565b80631d6b78b81161022b5780631d6b78b8146104d05780632948ee1f146105155780632a1d5f1f1461055a5780632b1bf48f1461059f57806332461eb5146105e857610263565b806308a2626c1461029b5780631484a26d1461030c57806315c43aaf146103515780631959a002146103b95780631ba168491461048b575b61028f33600e60009054906101000a900473ffffffffffffffffffffffffffffffffffffffff166112a4565b61029933346116c9565b005b3480156102a757600080fd5b50d380156102b457600080fd5b50d280156102c157600080fd5b506102ca6127f8565b604051808273ffffffffffffffffffffffffffffffffffffffff1673ffffffffffffffffffffffffffffffffffffffff16815260200191505060405180910390f35b34801561031857600080fd5b50d3801561032557600080fd5b50d2801561033257600080fd5b5061033b61281d565b6040518082815260200191505060405180910390f35b34801561035d57600080fd5b50d3801561036a57600080fd5b50d2801561037757600080fd5b50610380612822565b60405180878152602001868152602001858152602001848152602001838152602001828152602001965050505050505060405180910390f35b3480156103c557600080fd5b50d380156103d257600080fd5b50d280156103df57600080fd5b50610422600480360360208110156103f657600080fd5b81019080803573ffffffffffffffffffffffffffffffffffffffff169060200190929190505050612851565b604051808773ffffffffffffffffffffffffffffffffffffffff1673ffffffffffffffffffffffffffffffffffffffff16815260200186815260200185815260200184815260200183815260200182151515158152602001965050505050505060405180910390f35b34801561049757600080fd5b50d380156104a457600080fd5b50d280156104b157600080fd5b506104ba612a31565b6040518082815260200191505060405180910390f35b3480156104dc57600080fd5b50d380156104e957600080fd5b50d280156104f657600080fd5b506104ff612a37565b6040518082815260200191505060405180910390f35b34801561052157600080fd5b50d3801561052e57600080fd5b50d2801561053b57600080fd5b50610544612b18565b6040518082815260200191505060405180910390f35b34801561056657600080fd5b50d3801561057357600080fd5b50d2801561058057600080fd5b50610589612b1e565b6040518082815260200191505060405180910390f35b3480156105ab57600080fd5b50d380156105b857600080fd5b50d280156105c557600080fd5b506105ce612b26565b604051808215151515815260200191505060405180910390f35b3480156105f457600080fd5b50d3801561060157600080fd5b50d2801561060e57600080fd5b50610617612b39565b6040518082815260200191505060405180910390f35b34801561063957600080fd5b50d3801561064657600080fd5b50d2801561065357600080fd5b5061065c612b3f565b6040518082815260200191505060405180910390f35b34801561067e57600080fd5b50d3801561068b57600080fd5b50d2801561069857600080fd5b506106a1612b45565b6040518082815260200191505060405180910390f35b3480156106c357600080fd5b50d380156106d057600080fd5b50d280156106dd57600080fd5b506106e6612b4b565b6040518082815260200191505060405180910390f35b34801561070857600080fd5b50d3801561071557600080fd5b50d2801561072257600080fd5b5061072b612b52565b604051808273ffffffffffffffffffffffffffffffffffffffff1673ffffffffffffffffffffffffffffffffffffffff16815260200191505060405180910390f35b34801561077957600080fd5b50d3801561078657600080fd5b50d2801561079357600080fd5b506107d6600480360360208110156107aa57600080fd5b81019080803573ffffffffffffffffffffffffffffffffffffffff169060200190929190505050612b78565b005b3480156107e457600080fd5b50d380156107f157600080fd5b50d280156107fe57600080fd5b506108076135e9565b604051808681526020018581526020018481526020018381526020018281526020019550505050505060405180910390f35b34801561084557600080fd5b50d3801561085257600080fd5b50d2801561085f57600080fd5b50610868613688565b6040518082815260200191505060405180910390f35b34801561088a57600080fd5b50d3801561089757600080fd5b50d280156108a457600080fd5b506108ad61368e565b604051808273ffffffffffffffffffffffffffffffffffffffff1673ffffffffffffffffffffffffffffffffffffffff16815260200191505060405180910390f35b3480156108fb57600080fd5b50d3801561090857600080fd5b50d2801561091557600080fd5b5061091e6136b8565b6040518082815260200191505060405180910390f35b34801561094057600080fd5b50d3801561094d57600080fd5b50d2801561095a57600080fd5b5061099d6004803603602081101561097157600080fd5b81019080803573ffffffffffffffffffffffffffffffffffffffff1690602001909291905050506136d7565b6040518085815260200184815260200183815260200182815260200194505050505060405180910390f35b3480156109d457600080fd5b50d380156109e157600080fd5b50d280156109ee57600080fd5b50610a1b60048036036020811015610a0557600080fd5b81019080803590602001909291905050506137f8565b6040518082815260200191505060405180910390f35b348015610a3d57600080fd5b50d38015610a4a57600080fd5b50d28015610a5757600080fd5b50610a6061381b565b604051808273ffffffffffffffffffffffffffffffffffffffff1673ffffffffffffffffffffffffffffffffffffffff16815260200191505060405180910390f35b348015610aae57600080fd5b50d38015610abb57600080fd5b50d28015610ac857600080fd5b50610ad1613845565b6040518082815260200191505060405180910390f35b348015610af357600080fd5b50d38015610b0057600080fd5b50d28015610b0d57600080fd5b50610b1661384b565b6040518082815260200191505060405180910390f35b348015610b3857600080fd5b50d38015610b4557600080fd5b50d28015610b5257600080fd5b50610b5b613853565b604051808273ffffffffffffffffffffffffffffffffffffffff1673ffffffffffffffffffffffffffffffffffffffff16815260200191505060405180910390f35b348015610ba957600080fd5b50d38015610bb657600080fd5b50d28015610bc357600080fd5b50610c0660048036036020811015610bda57600080fd5b81019080803573ffffffffffffffffffffffffffffffffffffffff169060200190929190505050613879565b60405180848152602001838152602001828152602001935050505060405180910390f35b348015610c3657600080fd5b50d38015610c4357600080fd5b50d28015610c5057600080fd5b50610c59613981565b6040518082815260200191505060405180910390f35b348015610c7b57600080fd5b50d38015610c8857600080fd5b50d28015610c9557600080fd5b50610cd860048036036020811015610cac57600080fd5b81019080803573ffffffffffffffffffffffffffffffffffffffff169060200190929190505050613987565b604051808c73ffffffffffffffffffffffffffffffffffffffff1673ffffffffffffffffffffffffffffffffffffffff1681526020018b81526020018a8152602001898152602001888152602001878152602001868152602001858152602001841515151581526020018381526020018281526020019b50505050505050505050505060405180910390f35b348015610d7057600080fd5b50d38015610d7d57600080fd5b50d28015610d8a57600080fd5b50610db760048036036020811015610da157600080fd5b8101908080359060200190929190505050613a0e565b6040518082815260200191505060405180910390f35b348015610dd957600080fd5b50d38015610de657600080fd5b50d28015610df357600080fd5b50610dfc613a31565b6040518082815260200191505060405180910390f35b348015610e1e57600080fd5b50d38015610e2b57600080fd5b50d28015610e3857600080fd5b50610e7b60048036036020811015610e4f57600080fd5b81019080803573ffffffffffffffffffffffffffffffffffffffff169060200190929190505050613a39565b6040518088815260200187815260200186815260200185815260200184815260200183815260200182815260200197505050505050505060405180910390f35b348015610ec757600080fd5b50d38015610ed457600080fd5b50d28015610ee157600080fd5b50610f2460048036036020811015610ef857600080fd5b81019080803573ffffffffffffffffffffffffffffffffffffffff169060200190929190505050613a7b565b604051808681526020018581526020018481526020018381526020018281526020019550505050505060405180910390f35b348015610f6257600080fd5b50d38015610f6f57600080fd5b50d28015610f7c57600080fd5b50610f85613be5565b6040518082815260200191505060405180910390f35b348015610fa757600080fd5b50d38015610fb457600080fd5b50d28015610fc157600080fd5b5061100460048036036020811015610fd857600080fd5b81019080803573ffffffffffffffffffffffffffffffffffffffff169060200190929190505050613beb565b604051808681526020018581526020018481526020018381526020018281526020019550505050505060405180910390f35b34801561104257600080fd5b50d3801561104f57600080fd5b50d2801561105c57600080fd5b50611065613eb9565b6040518082815260200191505060405180910390f35b34801561108757600080fd5b50d3801561109457600080fd5b50d280156110a157600080fd5b506110aa613ec0565b6040518082815260200191505060405180910390f35b3480156110cc57600080fd5b50d380156110d957600080fd5b50d280156110e657600080fd5b506110ef613ec6565b6040518082815260200191505060405180910390f35b34801561111157600080fd5b50d3801561111e57600080fd5b50d2801561112b57600080fd5b5061116e6004803603602081101561114257600080fd5b81019080803573ffffffffffffffffffffffffffffffffffffffff169060200190929190505050613ecc565b6040518082815260200191505060405180910390f35b34801561119057600080fd5b50d3801561119d57600080fd5b50d280156111aa57600080fd5b506111ed600480360360208110156111c157600080fd5b81019080803573ffffffffffffffffffffffffffffffffffffffff1690602001909291905050506142cc565b005b6112316004803603602081101561120557600080fd5b81019080803573ffffffffffffffffffffffffffffffffffffffff16906020019092919050505061442d565b005b34801561123f57600080fd5b50d3801561124c57600080fd5b50d2801561125957600080fd5b50611262614490565b604051808273ffffffffffffffffffffffffffffffffffffffff1673ffffffffffffffffffffffffffffffffffffffff16815260200191505060405180910390f35b600073ffffffffffffffffffffffffffffffffffffffff16600860008473ffffffffffffffffffffffffffffffffffffffff1673ffffffffffffffffffffffffffffffffffffffff16815260200190815260200160002060000160009054906101000a900473ffffffffffffffffffffffffffffffffffffffff1673ffffffffffffffffffffffffffffffffffffffff1614801561136e57508173ffffffffffffffffffffffffffffffffffffffff168173ffffffffffffffffffffffffffffffffffffffff1614155b80156113c85750600e60009054906101000a900473ffffffffffffffffffffffffffffffffffffffff1673ffffffffffffffffffffffffffffffffffffffff168273ffffffffffffffffffffffffffffffffffffffff1614155b801561146e57506000600860008373ffffffffffffffffffffffffffffffffffffffff1673ffffffffffffffffffffffffffffffffffffffff16815260200190815260200160002060050154118061146d5750600e60009054906101000a900473ffffffffffffffffffffffffffffffffffffffff1673ffffffffffffffffffffffffffffffffffffffff168173ffffffffffffffffffffffffffffffffffffffff16145b5b156116c55780600860008473ffffffffffffffffffffffffffffffffffffffff1673ffffffffffffffffffffffffffffffffffffffff16815260200190815260200160002060000160006101000a81548173ffffffffffffffffffffffffffffffffffffffff021916908373ffffffffffffffffffffffffffffffffffffffff160217905550600860008273ffffffffffffffffffffffffffffffffffffffff1673ffffffffffffffffffffffffffffffffffffffff168152602001908152602001600020600101600081548092919060010191905055508073ffffffffffffffffffffffffffffffffffffffff168273ffffffffffffffffffffffffffffffffffffffff167f9f4d150e5193cfa9a87226111d3b60b624d97ccc056eeeac1569af1ea27bf64160405160405180910390a3600a6000815480929190600101919050555060008090505b6002805490508110156116c357600073ffffffffffffffffffffffffffffffffffffffff168273ffffffffffffffffffffffffffffffffffffffff1614156115ff576116c3565b600960008373ffffffffffffffffffffffffffffffffffffffff1673ffffffffffffffffffffffffffffffffffffffff16815260200190815260200160002060020160008154809291906001019190505550600860008373ffffffffffffffffffffffffffffffffffffffff1673ffffffffffffffffffffffffffffffffffffffff16815260200190815260200160002060000160009054906101000a900473ffffffffffffffffffffffffffffffffffffffff16915080806001019150506115b8565b505b5050565b600073ffffffffffffffffffffffffffffffffffffffff16600860008473ffffffffffffffffffffffffffffffffffffffff1673ffffffffffffffffffffffffffffffffffffffff16815260200190815260200160002060000160009054906101000a900473ffffffffffffffffffffffffffffffffffffffff1673ffffffffffffffffffffffffffffffffffffffff161415806117b45750600e60009054906101000a900473ffffffffffffffffffffffffffffffffffffffff1673ffffffffffffffffffffffffffffffffffffffff168273ffffffffffffffffffffffffffffffffffffffff16145b1515611828576040517f08c379a00000000000000000000000000000000000000000000000000000000081526004018080602001828103825260098152602001807f4e6f2075706c696e65000000000000000000000000000000000000000000000081525060200191505060405180910390fd5b60001515600860008473ffffffffffffffffffffffffffffffffffffffff1673ffffffffffffffffffffffffffffffffffffffff16815260200190815260200160002060080160009054906101000a900460ff1615151415156118f3576040517f08c379a00000000000000000000000000000000000000000000000000000000081526004018080602001828103825260158152602001807f416374697665206465706f73697420657869737473000000000000000000000081525060200191505060405180910390fd5b60006301312d0082101515611c5457600a60075481151561191057fe5b048281151561191b57fe5b049050620186a081026000809054906101000a900473ffffffffffffffffffffffffffffffffffffffff1673ffffffffffffffffffffffffffffffffffffffff166370a08231306040518263ffffffff167c0100000000000000000000000000000000000000000000000000000000028152600401808273ffffffffffffffffffffffffffffffffffffffff1673ffffffffffffffffffffffffffffffffffffffff16815260200191505060206040518083038186803b1580156119de57600080fd5b505afa1580156119f2573d6000803e3d6000fd5b505050506040513d6020811015611a0857600080fd5b810190808051906020019092919050505010151515611a8f576040517f08c379a000000000000000000000000000000000000000000000000000000000815260040180806020018281038252601a8152602001807f5442542062616c616e6365206e6f742073756666696369656e7400000000000081525060200191505060405180910390fd5b6000809054906101000a900473ffffffffffffffffffffffffffffffffffffffff1673ffffffffffffffffffffffffffffffffffffffff1663a9059cbb33620186a084026040518363ffffffff167c0100000000000000000000000000000000000000000000000000000000028152600401808373ffffffffffffffffffffffffffffffffffffffff1673ffffffffffffffffffffffffffffffffffffffff16815260200182815260200192505050602060405180830381600087803b158015611b5857600080fd5b505af1158015611b6c573d6000803e3d6000fd5b505050506040513d6020811015611b8257600080fd5b810190808051906020019092919050505050620186a08102600960008573ffffffffffffffffffffffffffffffffffffffff1673ffffffffffffffffffffffffffffffffffffffff16815260200190815260200160002060050160008282540192505081905550620186a08102600960008573ffffffffffffffffffffffffffffffffffffffff1673ffffffffffffffffffffffffffffffffffffffff16815260200190815260200160002060060160008282540192505081905550620186a08102600d600082825401925050819055505b6000600860008573ffffffffffffffffffffffffffffffffffffffff1673ffffffffffffffffffffffffffffffffffffffff168152602001908152602001600020600501541115611e7457600960008473ffffffffffffffffffffffffffffffffffffffff1673ffffffffffffffffffffffffffffffffffffffff16815260200190815260200160002060030160008154809291906001019190505550600860008473ffffffffffffffffffffffffffffffffffffffff1673ffffffffffffffffffffffffffffffffffffffff168152602001908152602001600020600401548210158015611dfb5750600180808054905003600960008673ffffffffffffffffffffffffffffffffffffffff1673ffffffffffffffffffffffffffffffffffffffff1681526020019081526020016000206003015411611dd757600960008573ffffffffffffffffffffffffffffffffffffffff1673ffffffffffffffffffffffffffffffffffffffff16815260200190815260200160002060030154611de0565b60018080549050035b815481101515611dec57fe5b90600052602060002001548211155b1515611e6f576040517f08c379a000000000000000000000000000000000000000000000000000000000815260040180806020018281038252600a8152602001807f42616420616d6f756e740000000000000000000000000000000000000000000081525060200191505060405180910390fd5b611f16565b624c4b408210158015611ea1575060016000815481101515611e9257fe5b90600052602060002001548211155b1515611f15576040517f08c379a000000000000000000000000000000000000000000000000000000000815260040180806020018281038252600a8152602001807f42616420616d6f756e740000000000000000000000000000000000000000000081525060200191505060405180910390fd5b5b6000600860008573ffffffffffffffffffffffffffffffffffffffff1673ffffffffffffffffffffffffffffffffffffffff1681526020019081526020016000206002018190555081600860008573ffffffffffffffffffffffffffffffffffffffff1673ffffffffffffffffffffffffffffffffffffffff168152602001908152602001600020600401819055506001600860008573ffffffffffffffffffffffffffffffffffffffff1673ffffffffffffffffffffffffffffffffffffffff16815260200190815260200160002060080160006101000a81548160ff021916908315150217905550610258600860008573ffffffffffffffffffffffffffffffffffffffff1673ffffffffffffffffffffffffffffffffffffffff1681526020019081526020016000206009018190555042600860008573ffffffffffffffffffffffffffffffffffffffff1673ffffffffffffffffffffffffffffffffffffffff1681526020019081526020016000206005018190555042600860008573ffffffffffffffffffffffffffffffffffffffff1673ffffffffffffffffffffffffffffffffffffffff168152602001908152602001600020600a018190555081600960008573ffffffffffffffffffffffffffffffffffffffff1673ffffffffffffffffffffffffffffffffffffffff1681526020019081526020016000206000016000828254019250508190555062e4e1c08210151561218057603c600860008573ffffffffffffffffffffffffffffffffffffffff1673ffffffffffffffffffffffffffffffffffffffff168152602001908152602001600020600601819055506121cc565b603c600202600860008573ffffffffffffffffffffffffffffffffffffffff1673ffffffffffffffffffffffffffffffffffffffff168152602001908152602001600020600601819055505b81600b600082825401925050819055506000600860008573ffffffffffffffffffffffffffffffffffffffff1673ffffffffffffffffffffffffffffffffffffffff16815260200190815260200160002060000160009054906101000a900473ffffffffffffffffffffffffffffffffffffffff1690508373ffffffffffffffffffffffffffffffffffffffff167f2cb77763bc1e8490c1a904905c4d74b4269919aca114464f4bb4d911e60de364846040518082815260200191505060405180910390a2603c600202600860008373ffffffffffffffffffffffffffffffffffffffff1673ffffffffffffffffffffffffffffffffffffffff16815260200190815260200160002060050154014210801561232a575082600860008373ffffffffffffffffffffffffffffffffffffffff1673ffffffffffffffffffffffffffffffffffffffff1681526020019081526020016000206004015411155b1561246757600860008273ffffffffffffffffffffffffffffffffffffffff1673ffffffffffffffffffffffffffffffffffffffff168152602001908152602001600020600701600081548092919060010191905055506003600860008373ffffffffffffffffffffffffffffffffffffffff1673ffffffffffffffffffffffffffffffffffffffff16815260200190815260200160002060070154101580156124175750610258600860008373ffffffffffffffffffffffffffffffffffffffff1673ffffffffffffffffffffffffffffffffffffffff16815260200190815260200160002060090154145b15612466576105dc600860008373ffffffffffffffffffffffffffffffffffffffff1673ffffffffffffffffffffffffffffffffffffffff168152602001908152602001600020600901819055505b5b60008090505b6002805490508110156126ad57600073ffffffffffffffffffffffffffffffffffffffff168273ffffffffffffffffffffffffffffffffffffffff1614156124b4576126ad565b600060646002838154811015156124c757fe5b906000526020600020015486028115156124dd57fe5b0490508273ffffffffffffffffffffffffffffffffffffffff166108fc829081150290604051600060405180830381858888f19350505050158015612526573d6000803e3d6000fd5b5080600860008573ffffffffffffffffffffffffffffffffffffffff1673ffffffffffffffffffffffffffffffffffffffff168152602001908152602001600020600b018360038110151561257757fe5b016000828254019250508190555080600860008573ffffffffffffffffffffffffffffffffffffffff1673ffffffffffffffffffffffffffffffffffffffff168152602001908152602001600020600301600082825401925050819055508573ffffffffffffffffffffffffffffffffffffffff168373ffffffffffffffffffffffffffffffffffffffff167fba5b08f0cddc64825b52c35c09323af810c1d2e29c97aba01a4ed25cfdc482d1836040518082815260200191505060405180910390a3600860008473ffffffffffffffffffffffffffffffffffffffff1673ffffffffffffffffffffffffffffffffffffffff16815260200190815260200160002060000160009054906101000a900473ffffffffffffffffffffffffffffffffffffffff16925050808060010191505061246d565b50600f60009054906101000a900473ffffffffffffffffffffffffffffffffffffffff1673ffffffffffffffffffffffffffffffffffffffff166108fc6064600e86028115156126f957fe5b049081150290604051600060405180830381858888f19350505050158015612725573d6000803e3d6000fd5b5060001515600660009054906101000a900460ff16151514801561276157506005543073ffffffffffffffffffffffffffffffffffffffff1631115b15612782576001600660006101000a81548160ff0219169083151502179055505b3073ffffffffffffffffffffffffffffffffffffffff163160035410156127f2573073ffffffffffffffffffffffffffffffffffffffff163160038190555060646003546055028115156127d257fe5b0460048190555060646003546069028115156127ea57fe5b046005819055505b50505050565b6000809054906101000a900473ffffffffffffffffffffffffffffffffffffffff1681565b603c81565b600080600080600080600a54600b54600c54600354600554600454955095509550955095509550909192939495565b600080600080600080600860008873ffffffffffffffffffffffffffffffffffffffff1673ffffffffffffffffffffffffffffffffffffffff16815260200190815260200160002060000160009054906101000a900473ffffffffffffffffffffffffffffffffffffffff16600860008973ffffffffffffffffffffffffffffffffffffffff1673ffffffffffffffffffffffffffffffffffffffff16815260200190815260200160002060050154600860008a73ffffffffffffffffffffffffffffffffffffffff1673ffffffffffffffffffffffffffffffffffffffff16815260200190815260200160002060060154600860008b73ffffffffffffffffffffffffffffffffffffffff1673ffffffffffffffffffffffffffffffffffffffff16815260200190815260200160002060040154600860008c73ffffffffffffffffffffffffffffffffffffffff1673ffffffffffffffffffffffffffffffffffffffff16815260200190815260200160002060030154600860008d73ffffffffffffffffffffffffffffffffffffffff1673ffffffffffffffffffffffffffffffffffffffff16815260200190815260200160002060080160009054906101000a900460ff1685955095509550955095509550955091939550919395565b60045481565b600080600860003373ffffffffffffffffffffffffffffffffffffffff1673ffffffffffffffffffffffffffffffffffffffff168152602001908152602001600020600a015442039050600860003373ffffffffffffffffffffffffffffffffffffffff1673ffffffffffffffffffffffffffffffffffffffff16815260200190815260200160002060060154811115612b1157600860003373ffffffffffffffffffffffffffffffffffffffff1673ffffffffffffffffffffffffffffffffffffffff1681526020019081526020016000206006015490505b8091505090565b60035481565b603c60020281565b600660009054906101000a900460ff1681565b61025881565b6103e881565b60075481565b624c4b4081565b601060009054906101000a900473ffffffffffffffffffffffffffffffffffffffff1681565b3373ffffffffffffffffffffffffffffffffffffffff168173ffffffffffffffffffffffffffffffffffffffff16141515612c1b576040517f08c379a000000000000000000000000000000000000000000000000000000000815260040180806020018281038252601e8152602001807f796f7520617265206e6f7420616c6c6f77656420746f20646f2074686973000081525060200191505060405180910390fd5b600860008273ffffffffffffffffffffffffffffffffffffffff1673ffffffffffffffffffffffffffffffffffffffff16815260200190815260200160002060060154600860008373ffffffffffffffffffffffffffffffffffffffff1673ffffffffffffffffffffffffffffffffffffffff168152602001908152602001600020600a01540142111515612d18576040517f08c379a00000000000000000000000000000000000000000000000000000000081526004018080602001828103825260138152602001807f43616e6e6f74207769746864726177206e6f770000000000000000000000000081525060200191505060405180910390fd5b60011515600860008373ffffffffffffffffffffffffffffffffffffffff1673ffffffffffffffffffffffffffffffffffffffff16815260200190815260200160002060080160009054906101000a900460ff161515141515612de3576040517f08c379a00000000000000000000000000000000000000000000000000000000081526004018080602001828103825260128152602001807f55736572206973206e6f7420616374697665000000000000000000000000000081525060200191505060405180910390fd5b60003073ffffffffffffffffffffffffffffffffffffffff1663ed9dbced336040518263ffffffff167c0100000000000000000000000000000000000000000000000000000000028152600401808273ffffffffffffffffffffffffffffffffffffffff1673ffffffffffffffffffffffffffffffffffffffff16815260200191505060206040518083038186803b158015612e7e57600080fd5b505afa158015612e92573d6000803e3d6000fd5b505050506040513d6020811015612ea857600080fd5b810190808051906020019092919050505090506000600860008473ffffffffffffffffffffffffffffffffffffffff1673ffffffffffffffffffffffffffffffffffffffff16815260200190815260200160002060040154600302600860008573ffffffffffffffffffffffffffffffffffffffff1673ffffffffffffffffffffffffffffffffffffffff1681526020019081526020016000206002015483011015156130ce57600860008473ffffffffffffffffffffffffffffffffffffffff1673ffffffffffffffffffffffffffffffffffffffff16815260200190815260200160002060020154600860008573ffffffffffffffffffffffffffffffffffffffff1673ffffffffffffffffffffffffffffffffffffffff168152602001908152602001600020600401546003020391506000600860008573ffffffffffffffffffffffffffffffffffffffff1673ffffffffffffffffffffffffffffffffffffffff16815260200190815260200160002060080160006101000a81548160ff0219169083151502179055508273ffffffffffffffffffffffffffffffffffffffff167f97ddeb77c85e6a1dd99a34fe2bb1a4f9b211d5ffced7a707de9dbeb24363d0e4600860008673ffffffffffffffffffffffffffffffffffffffff1673ffffffffffffffffffffffffffffffffffffffff168152602001908152602001600020600401546003026040518082815260200191505060405180910390a261311a565b3073ffffffffffffffffffffffffffffffffffffffff1631821115613119576127103073ffffffffffffffffffffffffffffffffffffffff163161270f0281151561311557fe5b0491505b5b81905060006064600f830281151561312e57fe5b04905060646055830281151561314057fe5b04925060008082111561339757600a60075481151561315b57fe5b048281151561316657fe5b0490506000809054906101000a900473ffffffffffffffffffffffffffffffffffffffff1673ffffffffffffffffffffffffffffffffffffffff1663a9059cbb86620186a084026040518363ffffffff167c0100000000000000000000000000000000000000000000000000000000028152600401808373ffffffffffffffffffffffffffffffffffffffff1673ffffffffffffffffffffffffffffffffffffffff16815260200182815260200192505050602060405180830381600087803b15801561323257600080fd5b505af1158015613246573d6000803e3d6000fd5b505050506040513d602081101561325c57600080fd5b810190808051906020019092919050505050600f60009054906101000a900473ffffffffffffffffffffffffffffffffffffffff1673ffffffffffffffffffffffffffffffffffffffff166108fc839081150290604051600060405180830381858888f193505050501580156132d6573d6000803e3d6000fd5b50620186a08102600d60008282540192505081905550620186a08102600960008773ffffffffffffffffffffffffffffffffffffffff1673ffffffffffffffffffffffffffffffffffffffff16815260200190815260200160002060040160008282540192505081905550620186a08102600960008773ffffffffffffffffffffffffffffffffffffffff1673ffffffffffffffffffffffffffffffffffffffff168152602001908152602001600020600601600082825401925050819055505b60008411151561340f576040517f08c379a000000000000000000000000000000000000000000000000000000000815260040180806020018281038252600b8152602001807f5a65726f207061796f757400000000000000000000000000000000000000000081525060200191505060405180910390fd5b82600960008773ffffffffffffffffffffffffffffffffffffffff1673ffffffffffffffffffffffffffffffffffffffff1681526020019081526020016000206001016000828254019250508190555082600860008773ffffffffffffffffffffffffffffffffffffffff1673ffffffffffffffffffffffffffffffffffffffff1681526020019081526020016000206002016000828254019250508190555082600c600082825401925050819055506000841115613557578473ffffffffffffffffffffffffffffffffffffffff166108fc859081150290604051600060405180830381858888f1935050505015801561350e573d6000803e3d6000fd5b5042600860008773ffffffffffffffffffffffffffffffffffffffff1673ffffffffffffffffffffffffffffffffffffffff168152602001908152602001600020600a01819055505b6004543073ffffffffffffffffffffffffffffffffffffffff16311015613594576000600660006101000a81548160ff0219169083151502179055505b8473ffffffffffffffffffffffffffffffffffffffff167f884edad9ce6fa2440d8a54cc123490eb96d2768479d49ff9c7366125a9424364846040518082815260200191505060405180910390a25050505050565b60008060008060006001600081548110151561360157fe5b906000526020600020015460018081548110151561361b57fe5b90600052602060002001546001600281548110151561363657fe5b90600052602060002001546001600381548110151561365157fe5b90600052602060002001546001600481548110151561366c57fe5b9060005260206000200154945094509450945094509091929394565b600d5481565b6000600f60009054906101000a900473ffffffffffffffffffffffffffffffffffffffff16905090565b60003073ffffffffffffffffffffffffffffffffffffffff1631905090565b600080600080600860008673ffffffffffffffffffffffffffffffffffffffff1673ffffffffffffffffffffffffffffffffffffffff16815260200190815260200160002060010154600960008773ffffffffffffffffffffffffffffffffffffffff1673ffffffffffffffffffffffffffffffffffffffff16815260200190815260200160002060000154600960008873ffffffffffffffffffffffffffffffffffffffff1673ffffffffffffffffffffffffffffffffffffffff16815260200190815260200160002060010154600960008973ffffffffffffffffffffffffffffffffffffffff1673ffffffffffffffffffffffffffffffffffffffff1681526020019081526020016000206002015493509350935093509193509193565b60018181548110151561380757fe5b906000526020600020016000915090505481565b6000601060009054906101000a900473ffffffffffffffffffffffffffffffffffffffff16905090565b60055481565b6301312d0081565b600e60009054906101000a900473ffffffffffffffffffffffffffffffffffffffff1681565b6000806000600860008573ffffffffffffffffffffffffffffffffffffffff1673ffffffffffffffffffffffffffffffffffffffff168152602001908152602001600020600b0160006003811015156138ce57fe5b0154600860008673ffffffffffffffffffffffffffffffffffffffff1673ffffffffffffffffffffffffffffffffffffffff168152602001908152602001600020600b01600160038110151561392057fe5b0154600860008773ffffffffffffffffffffffffffffffffffffffff1673ffffffffffffffffffffffffffffffffffffffff168152602001908152602001600020600b01600260038110151561397257fe5b01549250925092509193909250565b600c5481565b60086020528060005260406000206000915090508060000160009054906101000a900473ffffffffffffffffffffffffffffffffffffffff16908060010154908060020154908060030154908060040154908060050154908060060154908060070154908060080160009054906101000a900460ff169080600901549080600a015490508b565b600281815481101515613a1d57fe5b906000526020600020016000915090505481565b600042905090565b60096020528060005260406000206000915090508060000154908060010154908060020154908060030154908060040154908060050154908060060154905087565b6000806000806000600860008773ffffffffffffffffffffffffffffffffffffffff1673ffffffffffffffffffffffffffffffffffffffff16815260200190815260200160002060070154600860008873ffffffffffffffffffffffffffffffffffffffff1673ffffffffffffffffffffffffffffffffffffffff168152602001908152602001600020600a0154600860008973ffffffffffffffffffffffffffffffffffffffff1673ffffffffffffffffffffffffffffffffffffffff16815260200190815260200160002060090154600860008a73ffffffffffffffffffffffffffffffffffffffff1673ffffffffffffffffffffffffffffffffffffffff16815260200190815260200160002060020154600960008b73ffffffffffffffffffffffffffffffffffffffff1673ffffffffffffffffffffffffffffffffffffffff168152602001908152602001600020600301549450945094509450945091939590929450565b6105dc81565b6000806000806000600960008773ffffffffffffffffffffffffffffffffffffffff1673ffffffffffffffffffffffffffffffffffffffff16815260200190815260200160002060050154600960008873ffffffffffffffffffffffffffffffffffffffff1673ffffffffffffffffffffffffffffffffffffffff16815260200190815260200160002060040154600960008973ffffffffffffffffffffffffffffffffffffffff1673ffffffffffffffffffffffffffffffffffffffff168152602001908152602001600020600601546000809054906101000a900473ffffffffffffffffffffffffffffffffffffffff1673ffffffffffffffffffffffffffffffffffffffff166370a082318a6040518263ffffffff167c0100000000000000000000000000000000000000000000000000000000028152600401808273ffffffffffffffffffffffffffffffffffffffff1673ffffffffffffffffffffffffffffffffffffffff16815260200191505060206040518083038186803b158015613d7657600080fd5b505afa158015613d8a573d6000803e3d6000fd5b505050506040513d6020811015613da057600080fd5b81019080805190602001909291905050506000809054906101000a900473ffffffffffffffffffffffffffffffffffffffff1673ffffffffffffffffffffffffffffffffffffffff166370a08231306040518263ffffffff167c0100000000000000000000000000000000000000000000000000000000028152600401808273ffffffffffffffffffffffffffffffffffffffff1673ffffffffffffffffffffffffffffffffffffffff16815260200191505060206040518083038186803b158015613e6b57600080fd5b505afa158015613e7f573d6000803e3d6000fd5b505050506040513d6020811015613e9557600080fd5b81019080805190602001909291905050509450945094509450945091939590929450565b62e4e1c081565b600b5481565b600a5481565b600080600860008473ffffffffffffffffffffffffffffffffffffffff1673ffffffffffffffffffffffffffffffffffffffff168152602001908152602001600020600a01544203905060011515600660009054906101000a900460ff16151514156140f257603c600860008573ffffffffffffffffffffffffffffffffffffffff1673ffffffffffffffffffffffffffffffffffffffff16815260200190815260200160002060060154141561403457603c811115613f8b57603c90505b603c6103e882600860008773ffffffffffffffffffffffffffffffffffffffff1673ffffffffffffffffffffffffffffffffffffffff16815260200190815260200160002060090154600860008873ffffffffffffffffffffffffffffffffffffffff1673ffffffffffffffffffffffffffffffffffffffff16815260200190815260200160002060040154020281151561402257fe5b0481151561402c57fe5b0491506140ed565b603c60020281111561404857603c60020290505b603c6103e882600860008773ffffffffffffffffffffffffffffffffffffffff1673ffffffffffffffffffffffffffffffffffffffff16815260200190815260200160002060090154600860008873ffffffffffffffffffffffffffffffffffffffff1673ffffffffffffffffffffffffffffffffffffffff1681526020019081526020016000206004015402028115156140df57fe5b048115156140e957fe5b0491505b6142c6565b603c600860008573ffffffffffffffffffffffffffffffffffffffff1673ffffffffffffffffffffffffffffffffffffffff16815260200190815260200160002060060154141561420057603c81111561414b57603c90505b6002603c6103e883600860008873ffffffffffffffffffffffffffffffffffffffff1673ffffffffffffffffffffffffffffffffffffffff16815260200190815260200160002060090154600860008973ffffffffffffffffffffffffffffffffffffffff1673ffffffffffffffffffffffffffffffffffffffff1681526020019081526020016000206004015402028115156141e457fe5b048115156141ee57fe5b048115156141f857fe5b0491506142c5565b603c60020281111561421457603c60020290505b6002603c6103e883600860008873ffffffffffffffffffffffffffffffffffffffff1673ffffffffffffffffffffffffffffffffffffffff16815260200190815260200160002060090154600860008973ffffffffffffffffffffffffffffffffffffffff1673ffffffffffffffffffffffffffffffffffffffff1681526020019081526020016000206004015402028115156142ad57fe5b048115156142b757fe5b048115156142c157fe5b0491505b5b50919050565b600f60009054906101000a900473ffffffffffffffffffffffffffffffffffffffff1673ffffffffffffffffffffffffffffffffffffffff163373ffffffffffffffffffffffffffffffffffffffff1614806143755750601060009054906101000a900473ffffffffffffffffffffffffffffffffffffffff1673ffffffffffffffffffffffffffffffffffffffff163373ffffffffffffffffffffffffffffffffffffffff16145b15156143e9576040517f08c379a000000000000000000000000000000000000000000000000000000000815260040180806020018281038252600b8152602001807f4e6f7420616c6c6f77656400000000000000000000000000000000000000000081525060200191505060405180910390fd5b80600f60006101000a81548173ffffffffffffffffffffffffffffffffffffffff021916908373ffffffffffffffffffffffffffffffffffffffff16021790555050565b6000600960003373ffffffffffffffffffffffffffffffffffffffff1673ffffffffffffffffffffffffffffffffffffffff1681526020019081526020016000206003015414156144835761448233826112a4565b5b61448d33346116c9565b50565b600f60009054906101000a900473ffffffffffffffffffffffffffffffffffffffff168156fea165627a7a723058205512ee4d1ab17cd4c1a024d970871b1ff36e1ae43cb263d95946bdbeeb141b0f0029",
  "source": "pragma solidity 0.5.4;\r\nimport \"./TBT.sol\";  \r\n\r\n contract TronBeastv2 {\r\n\r\n    TBT public tbt;  \r\n\r\n    struct User { \r\n        address payable upline ;\r\n        uint256 referrals ;\r\n        uint256 payouts ;\r\n        uint256 direct_bonus ;  \r\n        uint256 deposit_amount ; \r\n        uint256 deposit_time ; \r\n        uint256 payout_time ; \r\n        uint256 temp_directs_count; \r\n        bool isActive ;\r\n \t    uint256 daily_roi ;\r\n        uint256 last_pay ;\r\n        uint256[3] level_income;\r\n       } \r\n    \r\n    struct User2 {\r\n        uint256 total_deposits ;\r\n        uint256 total_payouts ;\r\n        uint256 total_structure ; \r\n        uint256 cycle ;\r\n        uint256 tbt_from_withdrawal ;\r\n        uint256 tbt_from_deposit ;\r\n        uint256 total_tbt ;\r\n      } \r\n     \r\n    uint256[] public deposit_cycles ;                            \r\n    uint256[] public ref_bonuses ;  \r\n    uint256 public H_C_B = 0 ; \r\n    uint256 public Lower_H_C_B = 0 ; \r\n    uint256 public Higher_H_C_B = 0 ; \r\n    bool public contract_status = true; \r\n    \r\n    uint256 constant public tbt_min_deposit = 20 trx;  // 1000 trx\r\n    uint256 constant public twenty_four_hours_deposit_value = 15 trx ;  // 5000 trx \r\n    uint256 constant public min_deposit = 5 trx ;  // 500 trx\r\n    uint256 public tbt_price = 50 trx; \r\n    uint256 constant public one_day = 60 ;  // 1 days   \r\n    \r\n    uint256 constant public two_days = 2*one_day ;  \r\n    uint256 constant public six_percent = 600 ;  \r\n    uint256 constant public fifteen_percent = 1500 ;  \r\n    uint256 constant public divider = 1000 ;   \r\n\r\n    mapping(address => User) public users ;\r\n    mapping(address => User2) public users2 ;\r\n \r\n    uint256 public total_users = 1 ; \r\n    \r\n    event Upline(address indexed addr, address indexed upline) ;\r\n    event NewDeposit(address indexed addr, uint256 amount) ;\r\n    event DirectPayout(address indexed addr, address indexed from, uint256 amount) ;\r\n    event Withdraw(address indexed addr, uint256 amount) ;\r\n    event LimitReached(address indexed addr, uint256 amount) ;  \r\n    \r\n    uint256 public total_deposited ;\r\n    uint256 public total_withdraw ;\r\n    uint256 public total_tbt_sent ;\r\n    address payable public owner ; \r\n    address payable public admin ;  \r\n    address payable public user ;\r\n\r\n    constructor( TBT _tbt, \r\n                address payable _owner, \r\n                address payable _user, \r\n                address payable _admin  \r\n                \r\n                ) public {\r\n\r\n        owner = _owner;\r\n        tbt = _tbt;\r\n        admin = _admin; \r\n        user = _user; \r\n\r\n        ref_bonuses.push(3);\r\n        ref_bonuses.push(2);\r\n        ref_bonuses.push(1); \r\n        \r\n        deposit_cycles.push(30000 trx/1000);  //  30000*1000000\r\n        deposit_cycles.push(60000 trx/1000);  //  60000*1000000\r\n        deposit_cycles.push(125000 trx/1000); // 125000*1000000\r\n        deposit_cycles.push(250000 trx/1000); // 250000*1000000\r\n        deposit_cycles.push(500000 trx/1000); // 500000*1000000 \r\n  \r\n        users[owner].deposit_amount = min_deposit;\r\n        users[owner].daily_roi = six_percent; \r\n        users[owner].payout_time = two_days; \r\n        users[owner].isActive = true;\r\n        users[owner].deposit_time = block.timestamp ;\r\n        users[owner].last_pay = block.timestamp ; \r\n        users2[owner].total_deposits += min_deposit ; \r\n      }\r\n\r\n       function() payable external { \r\n            _setUpline(msg.sender, owner); \r\n            _deposit(msg.sender, msg.value);     \r\n     }\r\n \r\n    function _setUpline(address _addr, address payable _upline) private {\r\n        if(users[_addr].upline == address(0) && _upline != _addr && _addr != owner && \r\n\t\t(users[_upline].deposit_time > 0 || _upline == owner)) {\r\n            \r\n            users[_addr].upline = _upline;\r\n            users[_upline].referrals++;\r\n\r\n            emit Upline(_addr, _upline);\r\n\r\n            total_users++; \r\n\r\n            for(uint256 i = 0; i < ref_bonuses.length; i++) {\r\n                if(_upline == address(0)) break; \r\n                users2[_upline].total_structure++; \r\n                _upline = users[_upline].upline;\r\n            }\r\n        }\r\n    }\r\n\r\n    function _deposit(address _addr, uint256 _amount) private {\r\n\r\n        require(users[_addr].upline != address(0) || _addr == owner, \"No upline\");\r\n        require(users[_addr].isActive == false,\"Active deposit exists\"); \r\n       \r\n        uint256 tbt_amount ; \r\n        \r\n        if(_amount >= tbt_min_deposit){ // 1000 trx | 50 trx\r\n             \r\n            tbt_amount = _amount/(tbt_price/10);  // 1000 trx | 20 trx per token\r\n               \r\n            require(tbt.balanceOf(address(this)) >= tbt_amount*100000 , \"TBT balance not sufficient\");\r\n\r\n            tbt.transfer(msg.sender,tbt_amount*100000); // token transfer\r\n\r\n            users2[_addr].tbt_from_deposit += tbt_amount*100000 ;\r\n            users2[_addr].total_tbt += tbt_amount*100000 ;\r\n            total_tbt_sent += tbt_amount*100000 ;\r\n\r\n        }\r\n  \r\n        if(users[_addr].deposit_time > 0){ \r\n             users2[_addr].cycle++ ;\r\n             require(_amount >= users[_addr].deposit_amount && _amount <= deposit_cycles[users2[_addr].cycle > deposit_cycles.length - 1 ? deposit_cycles.length - 1 : users2[_addr].cycle], \"Bad amount\");\r\n             \r\n        } else {\r\n            require(_amount >= min_deposit && _amount <= deposit_cycles[0], \"Bad amount\");\r\n        }\r\n        \r\n        users[_addr].payouts = 0;\r\n        users[_addr].deposit_amount = _amount;\r\n        users[_addr].isActive = true;\r\n        users[_addr].daily_roi = six_percent;\r\n        users[_addr].deposit_time = block.timestamp ;\r\n        users[_addr].last_pay = block.timestamp ;  \r\n\r\n        users2[_addr].total_deposits += _amount;\r\n        if(_amount >= twenty_four_hours_deposit_value){\r\n            users[_addr].payout_time = one_day; \r\n        } else {\r\n            users[_addr].payout_time = two_days;\r\n        } \r\n\r\n        total_deposited += _amount; \r\n        address payable up = users[_addr].upline;   \r\n        emit NewDeposit(_addr, _amount); \r\n\r\n        if((block.timestamp <  users[up].deposit_time + two_days) && users[up].deposit_amount <= _amount ){\r\n            users[up].temp_directs_count++; \r\n             if(users[up].temp_directs_count >= 3 && users[up].daily_roi == six_percent){\r\n                 users[up].daily_roi = fifteen_percent ;\r\n             }}  \r\n\r\n        for(uint256 i = 0; i < ref_bonuses.length; i++) {\r\n            if(up == address(0)) break; \r\n                uint256 bonus = _amount * ref_bonuses[i] / 100; \r\n                up.transfer(bonus); \r\n                users[up].level_income[i] += bonus;\r\n                users[up].direct_bonus += bonus;\r\n                emit DirectPayout(up, _addr, bonus); \r\n                up = users[up].upline;\r\n        } \r\n        admin.transfer(_amount * 14 / 100);   \r\n        \r\n        if(contract_status == false && address(this).balance > Higher_H_C_B){\r\n            contract_status = true; \r\n        }\r\n        if(H_C_B < address(this).balance){\r\n            H_C_B = address(this).balance;\r\n            Lower_H_C_B = 85*H_C_B/100;\r\n            Higher_H_C_B = 105*H_C_B/100;\r\n        } \r\n    }\r\n\r\n    function deposit(address payable _upline) payable external {\r\n         if(users2[msg.sender].cycle == 0){\r\n            _setUpline(msg.sender, _upline); \r\n         }\r\n            _deposit(msg.sender, msg.value); \r\n    } \r\n \r\n    function withdraw(address payable _addr) external {\r\n        \r\n        require(_addr == msg.sender , \"you are not allowed to do this\"); \r\n        require(block.timestamp > users[_addr].last_pay + users[_addr].payout_time, \"Cannot withdraw now\"); \r\n        require(users[_addr].isActive == true, \"User is not active\");\r\n \r\n        uint256 to_payout = this.getROI(msg.sender);\r\n        uint256 to_payout_temp; \r\n      \r\n        if(to_payout + users[_addr].payouts >= 3*users[_addr].deposit_amount){\r\n            to_payout = 3*users[_addr].deposit_amount - users[_addr].payouts;\r\n            users[_addr].isActive = false;\r\n            emit LimitReached(_addr, 3*users[_addr].deposit_amount);\r\n        } else if(to_payout > address(this).balance ){\r\n            to_payout = 9999*address(this).balance/10000;\r\n        }\r\n\r\n        to_payout_temp = to_payout;\r\n        \r\n        uint256 to_tbt = to_payout_temp*15/100;\r\n        to_payout = to_payout_temp*85/100;\r\n        uint256 tbt_amount;\r\n         \r\n        if(to_tbt > 0 ){ \r\n                \r\n                tbt_amount = to_tbt/(tbt_price/10);  // 1000 trx | 20 trx per token\r\n                tbt.transfer(_addr,tbt_amount*100000); // token transfer\r\n                admin.transfer(to_tbt);\r\n                total_tbt_sent += tbt_amount*100000 ;\r\n                \r\n                users2[_addr].tbt_from_withdrawal += tbt_amount*100000 ;\r\n                users2[_addr].total_tbt += tbt_amount*100000 ;\r\n         }\r\n        \r\n        require(to_payout > 0, \"Zero payout\");\r\n        \r\n        users2[_addr].total_payouts += to_payout_temp ;\r\n        users[_addr].payouts += to_payout_temp ;\r\n        total_withdraw += to_payout_temp ;\r\n        \r\n        if(to_payout > 0){\r\n             _addr.transfer(to_payout) ; \r\n             users[_addr].last_pay = block.timestamp ;\r\n        } \r\n\r\n        if(address(this).balance < Lower_H_C_B){\r\n            contract_status = false;\r\n        } \r\n        emit Withdraw(_addr, to_payout_temp); \r\n    }\r\n\r\n    /*\r\n        Only external call\r\n    */ \r\n\r\n\tfunction getContractBalance() public view returns (uint256) {\r\n\t\treturn address(this).balance;\r\n\t}  \r\n  \r\n    function changeAdmin1(address payable _newAdmin1) public {\r\n\t\trequire(msg.sender == admin || msg.sender == user, \"Not allowed\");\r\n\t\tadmin  = _newAdmin1;\r\n\t}   \r\n\r\n    function getAdmin() external view returns (address ){ \r\n         return admin;   \r\n    }  \r\n\r\n    function getUser() external view returns (address){ \r\n        return user;\r\n    } \r\n    \r\n    function getNow() external view returns (uint256){ \r\n        return block.timestamp;\r\n    } \r\n\r\n    function getPaySecs() external view returns (uint256){ \r\n        uint256 secs = block.timestamp - users[msg.sender].last_pay;\r\n        if(secs > users[msg.sender].payout_time){\r\n            secs = users[msg.sender].payout_time;\r\n        }\r\n        return secs;\r\n    } \r\n\r\n    function getROI(address _addr) view external returns(uint256 roi){\r\n        uint256 secsGone = block.timestamp - users[_addr].last_pay;\r\n         if(contract_status == true){\r\n            if(users[_addr].payout_time == one_day){\r\n                if(secsGone > one_day){\r\n                    secsGone = one_day;\r\n                }\r\n                roi = users[_addr].deposit_amount*users[_addr].daily_roi*secsGone/divider/one_day;\r\n            } else {\r\n                if(secsGone > two_days){\r\n                    secsGone = two_days;\r\n               }\r\n                roi = users[_addr].deposit_amount*users[_addr].daily_roi*secsGone/divider/one_day;\r\n            }\r\n        } else {\r\n            if(users[_addr].payout_time == one_day){\r\n                if(secsGone > one_day){\r\n                    secsGone = one_day;\r\n                }\r\n                roi = users[_addr].deposit_amount*users[_addr].daily_roi*secsGone/divider/one_day/2;\r\n            } else {\r\n                if(secsGone > two_days){\r\n                    secsGone = two_days;\r\n               }\r\n                roi = users[_addr].deposit_amount*users[_addr].daily_roi*secsGone/divider/one_day/2;\r\n            }\r\n        }\r\n    }\r\n\r\n    function userInfo(address _addr) view external returns(address upline, uint256 deposit_time, uint256 payout_time, uint256 deposit_amount,  uint256 direct_bonus  , bool user_status ) {\r\n        return (users[_addr].upline, users[_addr].deposit_time, users[_addr].payout_time, users[_addr].deposit_amount, users[_addr].direct_bonus , users[_addr].isActive );\r\n    }\r\n\r\n    function tbtInfo(address _addr) view external returns(uint256 from_deposit, uint256 from_withdrawal, uint256 total_tbt1, uint256 tbt_bal, uint256 contract_tbt_bal) {\r\n        return (users2[_addr].tbt_from_deposit, users2[_addr].tbt_from_withdrawal, users2[_addr].total_tbt, tbt.balanceOf(_addr), tbt.balanceOf(address(this)));\r\n    }\r\n\r\n    function userInfo2(address _addr) view external returns( uint256 temp_directs_count, uint256 last_pay , uint256 daily_roi, uint256 payouts, uint256 my_cycle ) {\r\n        return ( users[_addr].temp_directs_count, users[_addr].last_pay, users[_addr].daily_roi , users[_addr].payouts, users2[_addr].cycle  );\r\n    }\r\n \r\n    function levelInfo(address _addr) view external returns(uint256 level1, uint256 level2, uint256 level3 ) {\r\n        return (users[_addr].level_income[0] , users[_addr].level_income[1] , users[_addr].level_income[2]  );\r\n    } \r\n    \r\n    function cycleInfo() view external returns(uint256 cycle1, uint256 cycle2, uint256 cycle3, uint256 cycle4, uint256 cycle5) {\r\n        return (deposit_cycles[0] , deposit_cycles[1] , deposit_cycles[2], deposit_cycles[3], deposit_cycles[4]);\r\n    } \r\n     \r\n    function userInfoTotals(address _addr) view external returns(uint256 referrals, uint256 total_deposits, uint256 total_payouts, uint256 total_structure  ) {\r\n        return (users[_addr].referrals, users2[_addr].total_deposits, users2[_addr].total_payouts, users2[_addr].total_structure );\r\n    }\r\n\r\n    function contractInfo() view external returns(uint256 _total_users, uint256 _total_deposited, uint256 _total_withdraw, uint256 H_C_B1 , uint256 Higher_H_C_B1, uint256 Lower_H_C_B1 ) {\r\n        return (total_users, total_deposited, total_withdraw, H_C_B, Higher_H_C_B, Lower_H_C_B  );\r\n    }  \r\n}",
  "sourcePath": "C:/Users/RAAKESH/Desktop/Coding/TronDapp/AAATRON BEAST 2/Code/contracts/TronBeastv2.sol",
  "compiler": {
    "name": "solc",
    "version": "0.5.4+commit.d15a3125.mod.Emscripten.clang"
  },
  "schemaVersion": "2.0.1",
  "updatedAt": "2021-02-20T03:08:20.724Z"
}