{
  "contractName": "TronBeastv2",
  "abi": [
    {
      "constant": true,
      "inputs": [],
      "name": "tbt",
      "outputs": [
        {
          "name": "",
          "type": "address"
        }
      ],
      "payable": false,
      "stateMutability": "view",
      "type": "function"
    },
    {
      "constant": true,
      "inputs": [],
      "name": "one_day",
      "outputs": [
        {
          "name": "",
          "type": "uint256"
        }
      ],
      "payable": false,
      "stateMutability": "view",
      "type": "function"
    },
    {
      "constant": true,
      "inputs": [],
      "name": "Lower_H_C_B",
      "outputs": [
        {
          "name": "",
          "type": "uint256"
        }
      ],
      "payable": false,
      "stateMutability": "view",
      "type": "function"
    },
    {
      "constant": true,
      "inputs": [],
      "name": "H_C_B",
      "outputs": [
        {
          "name": "",
          "type": "uint256"
        }
      ],
      "payable": false,
      "stateMutability": "view",
      "type": "function"
    },
    {
      "constant": true,
      "inputs": [],
      "name": "two_days",
      "outputs": [
        {
          "name": "",
          "type": "uint256"
        }
      ],
      "payable": false,
      "stateMutability": "view",
      "type": "function"
    },
    {
      "constant": true,
      "inputs": [],
      "name": "contract_status",
      "outputs": [
        {
          "name": "",
          "type": "bool"
        }
      ],
      "payable": false,
      "stateMutability": "view",
      "type": "function"
    },
    {
      "constant": true,
      "inputs": [],
      "name": "six_percent",
      "outputs": [
        {
          "name": "",
          "type": "uint256"
        }
      ],
      "payable": false,
      "stateMutability": "view",
      "type": "function"
    },
    {
      "constant": true,
      "inputs": [],
      "name": "divider",
      "outputs": [
        {
          "name": "",
          "type": "uint256"
        }
      ],
      "payable": false,
      "stateMutability": "view",
      "type": "function"
    },
    {
      "constant": true,
      "inputs": [],
      "name": "tbt_price",
      "outputs": [
        {
          "name": "",
          "type": "uint256"
        }
      ],
      "payable": false,
      "stateMutability": "view",
      "type": "function"
    },
    {
      "constant": true,
      "inputs": [],
      "name": "min_deposit",
      "outputs": [
        {
          "name": "",
          "type": "uint256"
        }
      ],
      "payable": false,
      "stateMutability": "view",
      "type": "function"
    },
    {
      "constant": true,
      "inputs": [],
      "name": "user",
      "outputs": [
        {
          "name": "",
          "type": "address"
        }
      ],
      "payable": false,
      "stateMutability": "view",
      "type": "function"
    },
    {
      "constant": true,
      "inputs": [],
      "name": "total_tbt_sent",
      "outputs": [
        {
          "name": "",
          "type": "uint256"
        }
      ],
      "payable": false,
      "stateMutability": "view",
      "type": "function"
    },
    {
      "constant": true,
      "inputs": [
        {
          "name": "",
          "type": "uint256"
        }
      ],
      "name": "deposit_cycles",
      "outputs": [
        {
          "name": "",
          "type": "uint256"
        }
      ],
      "payable": false,
      "stateMutability": "view",
      "type": "function"
    },
    {
      "constant": true,
      "inputs": [],
      "name": "Higher_H_C_B",
      "outputs": [
        {
          "name": "",
          "type": "uint256"
        }
      ],
      "payable": false,
      "stateMutability": "view",
      "type": "function"
    },
    {
      "constant": true,
      "inputs": [],
      "name": "tbt_min_deposit",
      "outputs": [
        {
          "name": "",
          "type": "uint256"
        }
      ],
      "payable": false,
      "stateMutability": "view",
      "type": "function"
    },
    {
      "constant": true,
      "inputs": [],
      "name": "owner",
      "outputs": [
        {
          "name": "",
          "type": "address"
        }
      ],
      "payable": false,
      "stateMutability": "view",
      "type": "function"
    },
    {
      "constant": true,
      "inputs": [],
      "name": "total_withdraw",
      "outputs": [
        {
          "name": "",
          "type": "uint256"
        }
      ],
      "payable": false,
      "stateMutability": "view",
      "type": "function"
    },
    {
      "constant": true,
      "inputs": [
        {
          "name": "",
          "type": "address"
        }
      ],
      "name": "users",
      "outputs": [
        {
          "name": "upline",
          "type": "address"
        },
        {
          "name": "referrals",
          "type": "uint256"
        },
        {
          "name": "payouts",
          "type": "uint256"
        },
        {
          "name": "direct_bonus",
          "type": "uint256"
        },
        {
          "name": "deposit_amount",
          "type": "uint256"
        },
        {
          "name": "deposit_time",
          "type": "uint256"
        },
        {
          "name": "payout_time",
          "type": "uint256"
        },
        {
          "name": "temp_directs_count",
          "type": "uint256"
        },
        {
          "name": "isActive",
          "type": "bool"
        },
        {
          "name": "daily_roi",
          "type": "uint256"
        },
        {
          "name": "last_pay",
          "type": "uint256"
        },
        {
          "name": "next_max_deposit",
          "type": "uint256"
        }
      ],
      "payable": false,
      "stateMutability": "view",
      "type": "function"
    },
    {
      "constant": true,
      "inputs": [
        {
          "name": "",
          "type": "uint256"
        }
      ],
      "name": "ref_bonuses",
      "outputs": [
        {
          "name": "",
          "type": "uint256"
        }
      ],
      "payable": false,
      "stateMutability": "view",
      "type": "function"
    },
    {
      "constant": true,
      "inputs": [
        {
          "name": "",
          "type": "address"
        }
      ],
      "name": "users2",
      "outputs": [
        {
          "name": "total_deposits",
          "type": "uint256"
        },
        {
          "name": "total_payouts",
          "type": "uint256"
        },
        {
          "name": "total_structure",
          "type": "uint256"
        },
        {
          "name": "cycle",
          "type": "uint256"
        },
        {
          "name": "tbt_from_withdrawal",
          "type": "uint256"
        },
        {
          "name": "tbt_from_deposit",
          "type": "uint256"
        },
        {
          "name": "total_tbt",
          "type": "uint256"
        }
      ],
      "payable": false,
      "stateMutability": "view",
      "type": "function"
    },
    {
      "constant": true,
      "inputs": [],
      "name": "fifteen_percent",
      "outputs": [
        {
          "name": "",
          "type": "uint256"
        }
      ],
      "payable": false,
      "stateMutability": "view",
      "type": "function"
    },
    {
      "constant": true,
      "inputs": [],
      "name": "twenty_four_hours_deposit_value",
      "outputs": [
        {
          "name": "",
          "type": "uint256"
        }
      ],
      "payable": false,
      "stateMutability": "view",
      "type": "function"
    },
    {
      "constant": true,
      "inputs": [],
      "name": "total_deposited",
      "outputs": [
        {
          "name": "",
          "type": "uint256"
        }
      ],
      "payable": false,
      "stateMutability": "view",
      "type": "function"
    },
    {
      "constant": true,
      "inputs": [],
      "name": "total_users",
      "outputs": [
        {
          "name": "",
          "type": "uint256"
        }
      ],
      "payable": false,
      "stateMutability": "view",
      "type": "function"
    },
    {
      "constant": true,
      "inputs": [],
      "name": "admin",
      "outputs": [
        {
          "name": "",
          "type": "address"
        }
      ],
      "payable": false,
      "stateMutability": "view",
      "type": "function"
    },
    {
      "inputs": [
        {
          "name": "_tbt",
          "type": "address"
        }
      ],
      "payable": false,
      "stateMutability": "nonpayable",
      "type": "constructor"
    },
    {
      "payable": true,
      "stateMutability": "payable",
      "type": "fallback"
    },
    {
      "anonymous": false,
      "inputs": [
        {
          "indexed": true,
          "name": "addr",
          "type": "address"
        },
        {
          "indexed": true,
          "name": "upline",
          "type": "address"
        }
      ],
      "name": "Upline",
      "type": "event"
    },
    {
      "anonymous": false,
      "inputs": [
        {
          "indexed": true,
          "name": "addr",
          "type": "address"
        },
        {
          "indexed": false,
          "name": "amount",
          "type": "uint256"
        }
      ],
      "name": "NewDeposit",
      "type": "event"
    },
    {
      "anonymous": false,
      "inputs": [
        {
          "indexed": true,
          "name": "addr",
          "type": "address"
        },
        {
          "indexed": true,
          "name": "from",
          "type": "address"
        },
        {
          "indexed": false,
          "name": "amount",
          "type": "uint256"
        }
      ],
      "name": "DirectPayout",
      "type": "event"
    },
    {
      "anonymous": false,
      "inputs": [
        {
          "indexed": true,
          "name": "addr",
          "type": "address"
        },
        {
          "indexed": false,
          "name": "amount",
          "type": "uint256"
        }
      ],
      "name": "Withdraw",
      "type": "event"
    },
    {
      "anonymous": false,
      "inputs": [
        {
          "indexed": true,
          "name": "addr",
          "type": "address"
        },
        {
          "indexed": false,
          "name": "amount",
          "type": "uint256"
        }
      ],
      "name": "LimitReached",
      "type": "event"
    },
    {
      "constant": false,
      "inputs": [
        {
          "name": "_upline",
          "type": "address"
        }
      ],
      "name": "deposit",
      "outputs": [],
      "payable": true,
      "stateMutability": "payable",
      "type": "function"
    },
    {
      "constant": false,
      "inputs": [
        {
          "name": "_addr",
          "type": "address"
        }
      ],
      "name": "withdraw",
      "outputs": [],
      "payable": false,
      "stateMutability": "nonpayable",
      "type": "function"
    },
    {
      "constant": true,
      "inputs": [],
      "name": "getContractBalance",
      "outputs": [
        {
          "name": "",
          "type": "uint256"
        }
      ],
      "payable": false,
      "stateMutability": "view",
      "type": "function"
    },
    {
      "constant": false,
      "inputs": [
        {
          "name": "_newAdmin1",
          "type": "address"
        }
      ],
      "name": "changeAdmin1",
      "outputs": [],
      "payable": false,
      "stateMutability": "nonpayable",
      "type": "function"
    },
    {
      "constant": false,
      "inputs": [
        {
          "name": "_newOwner",
          "type": "address"
        }
      ],
      "name": "changeOwner",
      "outputs": [],
      "payable": false,
      "stateMutability": "nonpayable",
      "type": "function"
    },
    {
      "constant": true,
      "inputs": [],
      "name": "getAdmin",
      "outputs": [
        {
          "name": "",
          "type": "address"
        }
      ],
      "payable": false,
      "stateMutability": "view",
      "type": "function"
    },
    {
      "constant": true,
      "inputs": [],
      "name": "getAdmins",
      "outputs": [
        {
          "name": "_admin",
          "type": "address"
        }
      ],
      "payable": false,
      "stateMutability": "view",
      "type": "function"
    },
    {
      "constant": true,
      "inputs": [],
      "name": "getUser",
      "outputs": [
        {
          "name": "",
          "type": "address"
        }
      ],
      "payable": false,
      "stateMutability": "view",
      "type": "function"
    },
    {
      "constant": true,
      "inputs": [],
      "name": "getNow",
      "outputs": [
        {
          "name": "",
          "type": "uint256"
        }
      ],
      "payable": false,
      "stateMutability": "view",
      "type": "function"
    },
    {
      "constant": true,
      "inputs": [],
      "name": "getPaySecs",
      "outputs": [
        {
          "name": "",
          "type": "uint256"
        }
      ],
      "payable": false,
      "stateMutability": "view",
      "type": "function"
    },
    {
      "constant": true,
      "inputs": [
        {
          "name": "_addr",
          "type": "address"
        }
      ],
      "name": "getROI",
      "outputs": [
        {
          "name": "roi",
          "type": "uint256"
        }
      ],
      "payable": false,
      "stateMutability": "view",
      "type": "function"
    },
    {
      "constant": true,
      "inputs": [
        {
          "name": "_addr",
          "type": "address"
        }
      ],
      "name": "userInfo",
      "outputs": [
        {
          "name": "upline",
          "type": "address"
        },
        {
          "name": "deposit_time",
          "type": "uint256"
        },
        {
          "name": "payout_time",
          "type": "uint256"
        },
        {
          "name": "deposit_amount",
          "type": "uint256"
        },
        {
          "name": "direct_bonus",
          "type": "uint256"
        },
        {
          "name": "user_status",
          "type": "bool"
        },
        {
          "name": "next_max_deposit",
          "type": "uint256"
        }
      ],
      "payable": false,
      "stateMutability": "view",
      "type": "function"
    },
    {
      "constant": true,
      "inputs": [
        {
          "name": "_addr",
          "type": "address"
        }
      ],
      "name": "tbtInfo",
      "outputs": [
        {
          "name": "from_deposit",
          "type": "uint256"
        },
        {
          "name": "from_withdrawal",
          "type": "uint256"
        },
        {
          "name": "total_tbt1",
          "type": "uint256"
        },
        {
          "name": "tbt_bal",
          "type": "uint256"
        },
        {
          "name": "contract_tbt_bal",
          "type": "uint256"
        }
      ],
      "payable": false,
      "stateMutability": "view",
      "type": "function"
    },
    {
      "constant": true,
      "inputs": [
        {
          "name": "_addr",
          "type": "address"
        }
      ],
      "name": "userInfo2",
      "outputs": [
        {
          "name": "temp_directs_count",
          "type": "uint256"
        },
        {
          "name": "last_pay",
          "type": "uint256"
        },
        {
          "name": "daily_roi",
          "type": "uint256"
        },
        {
          "name": "payouts",
          "type": "uint256"
        }
      ],
      "payable": false,
      "stateMutability": "view",
      "type": "function"
    },
    {
      "constant": true,
      "inputs": [
        {
          "name": "_addr",
          "type": "address"
        }
      ],
      "name": "levelInfo",
      "outputs": [
        {
          "name": "level1",
          "type": "uint256"
        },
        {
          "name": "level2",
          "type": "uint256"
        },
        {
          "name": "level3",
          "type": "uint256"
        }
      ],
      "payable": false,
      "stateMutability": "view",
      "type": "function"
    },
    {
      "constant": true,
      "inputs": [],
      "name": "cycleInfo",
      "outputs": [
        {
          "name": "cycle1",
          "type": "uint256"
        },
        {
          "name": "cycle2",
          "type": "uint256"
        },
        {
          "name": "cycle3",
          "type": "uint256"
        },
        {
          "name": "cycle4",
          "type": "uint256"
        },
        {
          "name": "cycle5",
          "type": "uint256"
        }
      ],
      "payable": false,
      "stateMutability": "view",
      "type": "function"
    },
    {
      "constant": true,
      "inputs": [
        {
          "name": "_addr",
          "type": "address"
        }
      ],
      "name": "userInfoTotals",
      "outputs": [
        {
          "name": "referrals",
          "type": "uint256"
        },
        {
          "name": "total_deposits",
          "type": "uint256"
        },
        {
          "name": "total_payouts",
          "type": "uint256"
        },
        {
          "name": "total_structure",
          "type": "uint256"
        }
      ],
      "payable": false,
      "stateMutability": "view",
      "type": "function"
    },
    {
      "constant": true,
      "inputs": [],
      "name": "contractInfo",
      "outputs": [
        {
          "name": "_total_users",
          "type": "uint256"
        },
        {
          "name": "_total_deposited",
          "type": "uint256"
        },
        {
          "name": "_total_withdraw",
          "type": "uint256"
        },
        {
          "name": "H_C_B1",
          "type": "uint256"
        },
        {
          "name": "Higher_H_C_B1",
          "type": "uint256"
        },
        {
          "name": "Lower_H_C_B1",
          "type": "uint256"
        }
      ],
      "payable": false,
      "stateMutability": "view",
      "type": "function"
    }
  ],
  "bytecode": "0x60806040526000600355600060045560006005556001600660006101000a81548160ff0219169083151502179055506302faf0806007556001600a553480156200004857600080fd5b50d380156200005657600080fd5b50d280156200006457600080fd5b5060405160208062004ed1833981018060405260208110156200008657600080fd5b810190808051906020019092919050505033600e60006101000a81548173ffffffffffffffffffffffffffffffffffffffff021916908373ffffffffffffffffffffffffffffffffffffffff160217905550806000806101000a81548173ffffffffffffffffffffffffffffffffffffffff021916908373ffffffffffffffffffffffffffffffffffffffff16021790555033600f60006101000a81548173ffffffffffffffffffffffffffffffffffffffff021916908373ffffffffffffffffffffffffffffffffffffffff16021790555033601060006101000a81548173ffffffffffffffffffffffffffffffffffffffff021916908373ffffffffffffffffffffffffffffffffffffffff160217905550600260039080600181540180825580915050906001820390600052602060002001600090919290919091505550600280908060018154018082558091505090600182039060005260206000200160009091929091909150555060026001908060018154018082558091505090600182039060005260206000200160009091929091909150555060016301c9c38090806001815401808255809150509060018203906000526020600020016000909192909190915055506001630393870090806001815401808255809150509060018203906000526020600020016000909192909190915055506001630773594090806001815401808255809150509060018203906000526020600020016000909192909190915055506001630ee6b28090806001815401808255809150509060018203906000526020600020016000909192909190915055506001631dcd65009080600181540180825580915050906001820390600052602060002001600090919290919091505550624c4b4060086000600e60009054906101000a900473ffffffffffffffffffffffffffffffffffffffff1673ffffffffffffffffffffffffffffffffffffffff1673ffffffffffffffffffffffffffffffffffffffff16815260200190815260200160002060040181905550600160096000600e60009054906101000a900473ffffffffffffffffffffffffffffffffffffffff1673ffffffffffffffffffffffffffffffffffffffff1673ffffffffffffffffffffffffffffffffffffffff1681526020019081526020016000206003018190555061025860086000600e60009054906101000a900473ffffffffffffffffffffffffffffffffffffffff1673ffffffffffffffffffffffffffffffffffffffff1673ffffffffffffffffffffffffffffffffffffffff16815260200190815260200160002060090181905550603c60020260086000600e60009054906101000a900473ffffffffffffffffffffffffffffffffffffffff1673ffffffffffffffffffffffffffffffffffffffff1673ffffffffffffffffffffffffffffffffffffffff16815260200190815260200160002060060181905550600160086000600e60009054906101000a900473ffffffffffffffffffffffffffffffffffffffff1673ffffffffffffffffffffffffffffffffffffffff1673ffffffffffffffffffffffffffffffffffffffff16815260200190815260200160002060080160006101000a81548160ff0219169083151502179055504260086000600e60009054906101000a900473ffffffffffffffffffffffffffffffffffffffff1673ffffffffffffffffffffffffffffffffffffffff1673ffffffffffffffffffffffffffffffffffffffff168152602001908152602001600020600501819055504260086000600e60009054906101000a900473ffffffffffffffffffffffffffffffffffffffff1673ffffffffffffffffffffffffffffffffffffffff1673ffffffffffffffffffffffffffffffffffffffff168152602001908152602001600020600a0181905550624c4b4060096000600e60009054906101000a900473ffffffffffffffffffffffffffffffffffffffff1673ffffffffffffffffffffffffffffffffffffffff1673ffffffffffffffffffffffffffffffffffffffff168152602001908152602001600020600001600082825401925050819055505061483e80620006936000396000f3fe608060405260043610610279576000357c01000000000000000000000000000000000000000000000000000000009004806374c1dbde11610161578063bf39a89c116100d3578063de560cca11610097578063de560cca14611148578063e7cc62bd1461118d578063ed9dbced146111d2578063f0fd116014611251578063f340fa01146112bc578063f851a4401461130057610279565b8063bf39a89c14610ee6578063c3bfeb5314610f8f578063c7b0e3af14611023578063ca7c400314611068578063daceca071461110357610279565b806390d9f58a1161012557806390d9f58a14610bff5780639a8318f414610c8c578063a6f9dae114610cd1578063a87430ba14610d3c578063b7d9f0d214610e38578063bbe4fd5014610ea157610279565b806374c1dbde14610a2a578063832880e714610a93578063871a1eb214610b045780638d38d01f14610b495780638da5cb5b14610b8e57610279565b806332461eb5116101fa57806351cff8d9116101be57806351cff8d9146107cf57806358553baa1461083a5780636582547a1461089b5780636e9960c3146108e05780636f9fb98a1461095157806374b95b2d1461099657610279565b806332461eb51461064a578063378efa371461068f57806340fc9f6d146106d45780634d5f811e146107195780634f8632ba1461075e57610279565b80631d6b78b8116102415780631d6b78b8146104c15780632948ee1f146105065780632a1d5f1f1461054b5780632b1bf48f1461059057806331ae450b146105d957610279565b806308a2626c146102855780631484a26d146102f657806315c43aaf1461033b5780631959a002146103a35780631ba168491461047c575b6102833334611371565b005b34801561029157600080fd5b50d3801561029e57600080fd5b50d280156102ab57600080fd5b506102b461259f565b604051808273ffffffffffffffffffffffffffffffffffffffff1673ffffffffffffffffffffffffffffffffffffffff16815260200191505060405180910390f35b34801561030257600080fd5b50d3801561030f57600080fd5b50d2801561031c57600080fd5b506103256125c4565b6040518082815260200191505060405180910390f35b34801561034757600080fd5b50d3801561035457600080fd5b50d2801561036157600080fd5b5061036a6125c9565b60405180878152602001868152602001858152602001848152602001838152602001828152602001965050505050505060405180910390f35b3480156103af57600080fd5b50d380156103bc57600080fd5b50d280156103c957600080fd5b5061040c600480360360208110156103e057600080fd5b81019080803573ffffffffffffffffffffffffffffffffffffffff1690602001909291905050506125f8565b604051808873ffffffffffffffffffffffffffffffffffffffff1673ffffffffffffffffffffffffffffffffffffffff1681526020018781526020018681526020018581526020018481526020018315151515815260200182815260200197505050505050505060405180910390f35b34801561048857600080fd5b50d3801561049557600080fd5b50d280156104a257600080fd5b506104ab612821565b6040518082815260200191505060405180910390f35b3480156104cd57600080fd5b50d380156104da57600080fd5b50d280156104e757600080fd5b506104f0612827565b6040518082815260200191505060405180910390f35b34801561051257600080fd5b50d3801561051f57600080fd5b50d2801561052c57600080fd5b50610535612908565b6040518082815260200191505060405180910390f35b34801561055757600080fd5b50d3801561056457600080fd5b50d2801561057157600080fd5b5061057a61290e565b6040518082815260200191505060405180910390f35b34801561059c57600080fd5b50d380156105a957600080fd5b50d280156105b657600080fd5b506105bf612916565b604051808215151515815260200191505060405180910390f35b3480156105e557600080fd5b50d380156105f257600080fd5b50d280156105ff57600080fd5b50610608612929565b604051808273ffffffffffffffffffffffffffffffffffffffff1673ffffffffffffffffffffffffffffffffffffffff16815260200191505060405180910390f35b34801561065657600080fd5b50d3801561066357600080fd5b50d2801561067057600080fd5b50610679612953565b6040518082815260200191505060405180910390f35b34801561069b57600080fd5b50d380156106a857600080fd5b50d280156106b557600080fd5b506106be612959565b6040518082815260200191505060405180910390f35b3480156106e057600080fd5b50d380156106ed57600080fd5b50d280156106fa57600080fd5b5061070361295f565b6040518082815260200191505060405180910390f35b34801561072557600080fd5b50d3801561073257600080fd5b50d2801561073f57600080fd5b50610748612965565b6040518082815260200191505060405180910390f35b34801561076a57600080fd5b50d3801561077757600080fd5b50d2801561078457600080fd5b5061078d61296c565b604051808273ffffffffffffffffffffffffffffffffffffffff1673ffffffffffffffffffffffffffffffffffffffff16815260200191505060405180910390f35b3480156107db57600080fd5b50d380156107e857600080fd5b50d280156107f557600080fd5b506108386004803603602081101561080c57600080fd5b81019080803573ffffffffffffffffffffffffffffffffffffffff169060200190929190505050612992565b005b34801561084657600080fd5b50d3801561085357600080fd5b50d2801561086057600080fd5b50610869613402565b604051808681526020018581526020018481526020018381526020018281526020019550505050505060405180910390f35b3480156108a757600080fd5b50d380156108b457600080fd5b50d280156108c157600080fd5b506108ca6134a1565b6040518082815260200191505060405180910390f35b3480156108ec57600080fd5b50d380156108f957600080fd5b50d2801561090657600080fd5b5061090f6134a7565b604051808273ffffffffffffffffffffffffffffffffffffffff1673ffffffffffffffffffffffffffffffffffffffff16815260200191505060405180910390f35b34801561095d57600080fd5b50d3801561096a57600080fd5b50d2801561097757600080fd5b506109806134d1565b6040518082815260200191505060405180910390f35b3480156109a257600080fd5b50d380156109af57600080fd5b50d280156109bc57600080fd5b506109ff600480360360208110156109d357600080fd5b81019080803573ffffffffffffffffffffffffffffffffffffffff1690602001909291905050506134f0565b6040518085815260200184815260200183815260200182815260200194505050505060405180910390f35b348015610a3657600080fd5b50d38015610a4357600080fd5b50d28015610a5057600080fd5b50610a7d60048036036020811015610a6757600080fd5b8101908080359060200190929190505050613611565b6040518082815260200191505060405180910390f35b348015610a9f57600080fd5b50d38015610aac57600080fd5b50d28015610ab957600080fd5b50610ac2613634565b604051808273ffffffffffffffffffffffffffffffffffffffff1673ffffffffffffffffffffffffffffffffffffffff16815260200191505060405180910390f35b348015610b1057600080fd5b50d38015610b1d57600080fd5b50d28015610b2a57600080fd5b50610b3361365e565b6040518082815260200191505060405180910390f35b348015610b5557600080fd5b50d38015610b6257600080fd5b50d28015610b6f57600080fd5b50610b78613664565b6040518082815260200191505060405180910390f35b348015610b9a57600080fd5b50d38015610ba757600080fd5b50d28015610bb457600080fd5b50610bbd61366c565b604051808273ffffffffffffffffffffffffffffffffffffffff1673ffffffffffffffffffffffffffffffffffffffff16815260200191505060405180910390f35b348015610c0b57600080fd5b50d38015610c1857600080fd5b50d28015610c2557600080fd5b50610c6860048036036020811015610c3c57600080fd5b81019080803573ffffffffffffffffffffffffffffffffffffffff169060200190929190505050613692565b60405180848152602001838152602001828152602001935050505060405180910390f35b348015610c9857600080fd5b50d38015610ca557600080fd5b50d28015610cb257600080fd5b50610cbb61379a565b6040518082815260200191505060405180910390f35b348015610cdd57600080fd5b50d38015610cea57600080fd5b50d28015610cf757600080fd5b50610d3a60048036036020811015610d0e57600080fd5b81019080803573ffffffffffffffffffffffffffffffffffffffff1690602001909291905050506137a0565b005b348015610d4857600080fd5b50d38015610d5557600080fd5b50d28015610d6257600080fd5b50610da560048036036020811015610d7957600080fd5b81019080803573ffffffffffffffffffffffffffffffffffffffff169060200190929190505050613901565b604051808d73ffffffffffffffffffffffffffffffffffffffff1673ffffffffffffffffffffffffffffffffffffffff1681526020018c81526020018b81526020018a8152602001898152602001888152602001878152602001868152602001851515151581526020018481526020018381526020018281526020019c5050505050505050505050505060405180910390f35b348015610e4457600080fd5b50d38015610e5157600080fd5b50d28015610e5e57600080fd5b50610e8b60048036036020811015610e7557600080fd5b810190808035906020019092919050505061398e565b6040518082815260200191505060405180910390f35b348015610ead57600080fd5b50d38015610eba57600080fd5b50d28015610ec757600080fd5b50610ed06139b1565b6040518082815260200191505060405180910390f35b348015610ef257600080fd5b50d38015610eff57600080fd5b50d28015610f0c57600080fd5b50610f4f60048036036020811015610f2357600080fd5b81019080803573ffffffffffffffffffffffffffffffffffffffff1690602001909291905050506139b9565b6040518088815260200187815260200186815260200185815260200184815260200183815260200182815260200197505050505050505060405180910390f35b348015610f9b57600080fd5b50d38015610fa857600080fd5b50d28015610fb557600080fd5b50610ff860048036036020811015610fcc57600080fd5b81019080803573ffffffffffffffffffffffffffffffffffffffff1690602001909291905050506139fb565b6040518085815260200184815260200183815260200182815260200194505050505060405180910390f35b34801561102f57600080fd5b50d3801561103c57600080fd5b50d2801561104957600080fd5b50611052613b1c565b6040518082815260200191505060405180910390f35b34801561107457600080fd5b50d3801561108157600080fd5b50d2801561108e57600080fd5b506110d1600480360360208110156110a557600080fd5b81019080803573ffffffffffffffffffffffffffffffffffffffff169060200190929190505050613b22565b604051808681526020018581526020018481526020018381526020018281526020019550505050505060405180910390f35b34801561110f57600080fd5b50d3801561111c57600080fd5b50d2801561112957600080fd5b50611132613df0565b6040518082815260200191505060405180910390f35b34801561115457600080fd5b50d3801561116157600080fd5b50d2801561116e57600080fd5b50611177613df7565b6040518082815260200191505060405180910390f35b34801561119957600080fd5b50d380156111a657600080fd5b50d280156111b357600080fd5b506111bc613dfd565b6040518082815260200191505060405180910390f35b3480156111de57600080fd5b50d380156111eb57600080fd5b50d280156111f857600080fd5b5061123b6004803603602081101561120f57600080fd5b81019080803573ffffffffffffffffffffffffffffffffffffffff169060200190929190505050613e03565b6040518082815260200191505060405180910390f35b34801561125d57600080fd5b50d3801561126a57600080fd5b50d2801561127757600080fd5b506112ba6004803603602081101561128e57600080fd5b81019080803573ffffffffffffffffffffffffffffffffffffffff169060200190929190505050614203565b005b6112fe600480360360208110156112d257600080fd5b81019080803573ffffffffffffffffffffffffffffffffffffffff169060200190929190505050614364565b005b34801561130c57600080fd5b50d3801561131957600080fd5b50d2801561132657600080fd5b5061132f6143c7565b604051808273ffffffffffffffffffffffffffffffffffffffff1673ffffffffffffffffffffffffffffffffffffffff16815260200191505060405180910390f35b600073ffffffffffffffffffffffffffffffffffffffff16600860008473ffffffffffffffffffffffffffffffffffffffff1673ffffffffffffffffffffffffffffffffffffffff16815260200190815260200160002060000160009054906101000a900473ffffffffffffffffffffffffffffffffffffffff1673ffffffffffffffffffffffffffffffffffffffff1614158061145c5750600e60009054906101000a900473ffffffffffffffffffffffffffffffffffffffff1673ffffffffffffffffffffffffffffffffffffffff168273ffffffffffffffffffffffffffffffffffffffff16145b15156114d0576040517f08c379a00000000000000000000000000000000000000000000000000000000081526004018080602001828103825260098152602001807f4e6f2075706c696e65000000000000000000000000000000000000000000000081525060200191505060405180910390fd5b60001515600860008473ffffffffffffffffffffffffffffffffffffffff1673ffffffffffffffffffffffffffffffffffffffff16815260200190815260200160002060080160009054906101000a900460ff16151514151561159b576040517f08c379a00000000000000000000000000000000000000000000000000000000081526004018080602001828103825260158152602001807f416374697665206465706f73697420657869737473000000000000000000000081525060200191505060405180910390fd5b60006301312d00821015156118fc57600a6007548115156115b857fe5b04828115156115c357fe5b049050620186a081026000809054906101000a900473ffffffffffffffffffffffffffffffffffffffff1673ffffffffffffffffffffffffffffffffffffffff166370a08231306040518263ffffffff167c0100000000000000000000000000000000000000000000000000000000028152600401808273ffffffffffffffffffffffffffffffffffffffff1673ffffffffffffffffffffffffffffffffffffffff16815260200191505060206040518083038186803b15801561168657600080fd5b505afa15801561169a573d6000803e3d6000fd5b505050506040513d60208110156116b057600080fd5b810190808051906020019092919050505010151515611737576040517f08c379a000000000000000000000000000000000000000000000000000000000815260040180806020018281038252601a8152602001807f5442542062616c616e6365206e6f742073756666696369656e7400000000000081525060200191505060405180910390fd5b6000809054906101000a900473ffffffffffffffffffffffffffffffffffffffff1673ffffffffffffffffffffffffffffffffffffffff1663a9059cbb33620186a084026040518363ffffffff167c0100000000000000000000000000000000000000000000000000000000028152600401808373ffffffffffffffffffffffffffffffffffffffff1673ffffffffffffffffffffffffffffffffffffffff16815260200182815260200192505050602060405180830381600087803b15801561180057600080fd5b505af1158015611814573d6000803e3d6000fd5b505050506040513d602081101561182a57600080fd5b810190808051906020019092919050505050620186a08102600960008573ffffffffffffffffffffffffffffffffffffffff1673ffffffffffffffffffffffffffffffffffffffff16815260200190815260200160002060050160008282540192505081905550620186a08102600960008573ffffffffffffffffffffffffffffffffffffffff1673ffffffffffffffffffffffffffffffffffffffff16815260200190815260200160002060060160008282540192505081905550620186a08102600d600082825401925050819055505b6000600860008573ffffffffffffffffffffffffffffffffffffffff1673ffffffffffffffffffffffffffffffffffffffff168152602001908152602001600020600501541115611b1c57600960008473ffffffffffffffffffffffffffffffffffffffff1673ffffffffffffffffffffffffffffffffffffffff16815260200190815260200160002060030160008154809291906001019190505550600860008473ffffffffffffffffffffffffffffffffffffffff1673ffffffffffffffffffffffffffffffffffffffff168152602001908152602001600020600401548210158015611aa35750600180808054905003600960008673ffffffffffffffffffffffffffffffffffffffff1673ffffffffffffffffffffffffffffffffffffffff1681526020019081526020016000206003015411611a7f57600960008573ffffffffffffffffffffffffffffffffffffffff1673ffffffffffffffffffffffffffffffffffffffff16815260200190815260200160002060030154611a88565b60018080549050035b815481101515611a9457fe5b90600052602060002001548211155b1515611b17576040517f08c379a000000000000000000000000000000000000000000000000000000000815260040180806020018281038252600a8152602001807f42616420616d6f756e740000000000000000000000000000000000000000000081525060200191505060405180910390fd5b611bbe565b624c4b408210158015611b49575060016000815481101515611b3a57fe5b90600052602060002001548211155b1515611bbd576040517f08c379a000000000000000000000000000000000000000000000000000000000815260040180806020018281038252600a8152602001807f42616420616d6f756e740000000000000000000000000000000000000000000081525060200191505060405180910390fd5b5b6000600860008573ffffffffffffffffffffffffffffffffffffffff1673ffffffffffffffffffffffffffffffffffffffff1681526020019081526020016000206002018190555081600860008573ffffffffffffffffffffffffffffffffffffffff1673ffffffffffffffffffffffffffffffffffffffff168152602001908152602001600020600401819055506001600860008573ffffffffffffffffffffffffffffffffffffffff1673ffffffffffffffffffffffffffffffffffffffff16815260200190815260200160002060080160006101000a81548160ff021916908315150217905550610258600860008573ffffffffffffffffffffffffffffffffffffffff1673ffffffffffffffffffffffffffffffffffffffff1681526020019081526020016000206009018190555042600860008573ffffffffffffffffffffffffffffffffffffffff1673ffffffffffffffffffffffffffffffffffffffff1681526020019081526020016000206005018190555042600860008573ffffffffffffffffffffffffffffffffffffffff1673ffffffffffffffffffffffffffffffffffffffff168152602001908152602001600020600a0181905550600180808054905003600960008673ffffffffffffffffffffffffffffffffffffffff1673ffffffffffffffffffffffffffffffffffffffff1681526020019081526020016000206003015411611e1857600960008573ffffffffffffffffffffffffffffffffffffffff1673ffffffffffffffffffffffffffffffffffffffff16815260200190815260200160002060030154611e21565b60018080549050035b815481101515611e2d57fe5b9060005260206000200154600860008573ffffffffffffffffffffffffffffffffffffffff1673ffffffffffffffffffffffffffffffffffffffff168152602001908152602001600020600e018190555081600960008573ffffffffffffffffffffffffffffffffffffffff1673ffffffffffffffffffffffffffffffffffffffff1681526020019081526020016000206000016000828254019250508190555062e4e1c082101515611f2757603c600860008573ffffffffffffffffffffffffffffffffffffffff1673ffffffffffffffffffffffffffffffffffffffff16815260200190815260200160002060060181905550611f73565b603c600202600860008573ffffffffffffffffffffffffffffffffffffffff1673ffffffffffffffffffffffffffffffffffffffff168152602001908152602001600020600601819055505b81600b600082825401925050819055506000600860008573ffffffffffffffffffffffffffffffffffffffff1673ffffffffffffffffffffffffffffffffffffffff16815260200190815260200160002060000160009054906101000a900473ffffffffffffffffffffffffffffffffffffffff1690508373ffffffffffffffffffffffffffffffffffffffff167f2cb77763bc1e8490c1a904905c4d74b4269919aca114464f4bb4d911e60de364846040518082815260200191505060405180910390a2603c600202600860008373ffffffffffffffffffffffffffffffffffffffff1673ffffffffffffffffffffffffffffffffffffffff1681526020019081526020016000206005015401421080156120d1575082600860008373ffffffffffffffffffffffffffffffffffffffff1673ffffffffffffffffffffffffffffffffffffffff1681526020019081526020016000206004015411155b1561220e57600860008273ffffffffffffffffffffffffffffffffffffffff1673ffffffffffffffffffffffffffffffffffffffff168152602001908152602001600020600701600081548092919060010191905055506003600860008373ffffffffffffffffffffffffffffffffffffffff1673ffffffffffffffffffffffffffffffffffffffff16815260200190815260200160002060070154101580156121be5750610258600860008373ffffffffffffffffffffffffffffffffffffffff1673ffffffffffffffffffffffffffffffffffffffff16815260200190815260200160002060090154145b1561220d576105dc600860008373ffffffffffffffffffffffffffffffffffffffff1673ffffffffffffffffffffffffffffffffffffffff168152602001908152602001600020600901819055505b5b60008090505b60028054905081101561245457600073ffffffffffffffffffffffffffffffffffffffff168273ffffffffffffffffffffffffffffffffffffffff16141561225b57612454565b6000606460028381548110151561226e57fe5b9060005260206000200154860281151561228457fe5b0490508273ffffffffffffffffffffffffffffffffffffffff166108fc829081150290604051600060405180830381858888f193505050501580156122cd573d6000803e3d6000fd5b5080600860008573ffffffffffffffffffffffffffffffffffffffff1673ffffffffffffffffffffffffffffffffffffffff168152602001908152602001600020600b018360038110151561231e57fe5b016000828254019250508190555080600860008573ffffffffffffffffffffffffffffffffffffffff1673ffffffffffffffffffffffffffffffffffffffff168152602001908152602001600020600301600082825401925050819055508573ffffffffffffffffffffffffffffffffffffffff168373ffffffffffffffffffffffffffffffffffffffff167fba5b08f0cddc64825b52c35c09323af810c1d2e29c97aba01a4ed25cfdc482d1836040518082815260200191505060405180910390a3600860008473ffffffffffffffffffffffffffffffffffffffff1673ffffffffffffffffffffffffffffffffffffffff16815260200190815260200160002060000160009054906101000a900473ffffffffffffffffffffffffffffffffffffffff169250508080600101915050612214565b50600f60009054906101000a900473ffffffffffffffffffffffffffffffffffffffff1673ffffffffffffffffffffffffffffffffffffffff166108fc6064600e86028115156124a057fe5b049081150290604051600060405180830381858888f193505050501580156124cc573d6000803e3d6000fd5b5060001515600660009054906101000a900460ff16151514801561250857506005543073ffffffffffffffffffffffffffffffffffffffff1631115b15612529576001600660006101000a81548160ff0219169083151502179055505b3073ffffffffffffffffffffffffffffffffffffffff16316003541015612599573073ffffffffffffffffffffffffffffffffffffffff1631600381905550606460035460550281151561257957fe5b04600481905550606460035460690281151561259157fe5b046005819055505b50505050565b6000809054906101000a900473ffffffffffffffffffffffffffffffffffffffff1681565b603c81565b600080600080600080600a54600b54600c54600354600554600454955095509550955095509550909192939495565b6000806000806000806000600860008973ffffffffffffffffffffffffffffffffffffffff1673ffffffffffffffffffffffffffffffffffffffff16815260200190815260200160002060000160009054906101000a900473ffffffffffffffffffffffffffffffffffffffff16600860008a73ffffffffffffffffffffffffffffffffffffffff1673ffffffffffffffffffffffffffffffffffffffff16815260200190815260200160002060050154600860008b73ffffffffffffffffffffffffffffffffffffffff1673ffffffffffffffffffffffffffffffffffffffff16815260200190815260200160002060060154600860008c73ffffffffffffffffffffffffffffffffffffffff1673ffffffffffffffffffffffffffffffffffffffff16815260200190815260200160002060040154600860008d73ffffffffffffffffffffffffffffffffffffffff1673ffffffffffffffffffffffffffffffffffffffff16815260200190815260200160002060030154600860008e73ffffffffffffffffffffffffffffffffffffffff1673ffffffffffffffffffffffffffffffffffffffff16815260200190815260200160002060080160009054906101000a900460ff16600860008f73ffffffffffffffffffffffffffffffffffffffff1673ffffffffffffffffffffffffffffffffffffffff168152602001908152602001600020600e01548696509650965096509650965096509650919395979092949650565b60045481565b600080600860003373ffffffffffffffffffffffffffffffffffffffff1673ffffffffffffffffffffffffffffffffffffffff168152602001908152602001600020600a015442039050600860003373ffffffffffffffffffffffffffffffffffffffff1673ffffffffffffffffffffffffffffffffffffffff1681526020019081526020016000206006015481111561290157600860003373ffffffffffffffffffffffffffffffffffffffff1673ffffffffffffffffffffffffffffffffffffffff1681526020019081526020016000206006015490505b8091505090565b60035481565b603c60020281565b600660009054906101000a900460ff1681565b6000600f60009054906101000a900473ffffffffffffffffffffffffffffffffffffffff16905090565b61025881565b6103e881565b60075481565b624c4b4081565b601060009054906101000a900473ffffffffffffffffffffffffffffffffffffffff1681565b3373ffffffffffffffffffffffffffffffffffffffff168173ffffffffffffffffffffffffffffffffffffffff16141515612a35576040517f08c379a000000000000000000000000000000000000000000000000000000000815260040180806020018281038252601e8152602001807f796f7520617265206e6f7420616c6c6f77656420746f20646f2074686973000081525060200191505060405180910390fd5b600860008273ffffffffffffffffffffffffffffffffffffffff1673ffffffffffffffffffffffffffffffffffffffff16815260200190815260200160002060060154600860008373ffffffffffffffffffffffffffffffffffffffff1673ffffffffffffffffffffffffffffffffffffffff168152602001908152602001600020600a01540142111515612b32576040517f08c379a00000000000000000000000000000000000000000000000000000000081526004018080602001828103825260138152602001807f43616e6e6f74207769746864726177206e6f770000000000000000000000000081525060200191505060405180910390fd5b60011515600860008373ffffffffffffffffffffffffffffffffffffffff1673ffffffffffffffffffffffffffffffffffffffff16815260200190815260200160002060080160009054906101000a900460ff161515141515612bfd576040517f08c379a00000000000000000000000000000000000000000000000000000000081526004018080602001828103825260128152602001807f55736572206973206e6f7420616374697665000000000000000000000000000081525060200191505060405180910390fd5b60003073ffffffffffffffffffffffffffffffffffffffff1663ed9dbced336040518263ffffffff167c0100000000000000000000000000000000000000000000000000000000028152600401808273ffffffffffffffffffffffffffffffffffffffff1673ffffffffffffffffffffffffffffffffffffffff16815260200191505060206040518083038186803b158015612c9857600080fd5b505afa158015612cac573d6000803e3d6000fd5b505050506040513d6020811015612cc257600080fd5b810190808051906020019092919050505090506000600860008473ffffffffffffffffffffffffffffffffffffffff1673ffffffffffffffffffffffffffffffffffffffff16815260200190815260200160002060040154600302600860008573ffffffffffffffffffffffffffffffffffffffff1673ffffffffffffffffffffffffffffffffffffffff1681526020019081526020016000206002015483011115612ee757600860008473ffffffffffffffffffffffffffffffffffffffff1673ffffffffffffffffffffffffffffffffffffffff16815260200190815260200160002060020154600860008573ffffffffffffffffffffffffffffffffffffffff1673ffffffffffffffffffffffffffffffffffffffff168152602001908152602001600020600401546003020391506000600860008573ffffffffffffffffffffffffffffffffffffffff1673ffffffffffffffffffffffffffffffffffffffff16815260200190815260200160002060080160006101000a81548160ff0219169083151502179055508273ffffffffffffffffffffffffffffffffffffffff167f97ddeb77c85e6a1dd99a34fe2bb1a4f9b211d5ffced7a707de9dbeb24363d0e4600860008673ffffffffffffffffffffffffffffffffffffffff1673ffffffffffffffffffffffffffffffffffffffff168152602001908152602001600020600401546003026040518082815260200191505060405180910390a2612f33565b3073ffffffffffffffffffffffffffffffffffffffff1631821115612f32576127103073ffffffffffffffffffffffffffffffffffffffff163161270f02811515612f2e57fe5b0491505b5b81905060006064600f8302811515612f4757fe5b049050606460558302811515612f5957fe5b0492506000808211156131b057600a600754811515612f7457fe5b0482811515612f7f57fe5b0490506000809054906101000a900473ffffffffffffffffffffffffffffffffffffffff1673ffffffffffffffffffffffffffffffffffffffff1663a9059cbb86620186a084026040518363ffffffff167c0100000000000000000000000000000000000000000000000000000000028152600401808373ffffffffffffffffffffffffffffffffffffffff1673ffffffffffffffffffffffffffffffffffffffff16815260200182815260200192505050602060405180830381600087803b15801561304b57600080fd5b505af115801561305f573d6000803e3d6000fd5b505050506040513d602081101561307557600080fd5b810190808051906020019092919050505050600f60009054906101000a900473ffffffffffffffffffffffffffffffffffffffff1673ffffffffffffffffffffffffffffffffffffffff166108fc839081150290604051600060405180830381858888f193505050501580156130ef573d6000803e3d6000fd5b50620186a08102600d60008282540192505081905550620186a08102600960008773ffffffffffffffffffffffffffffffffffffffff1673ffffffffffffffffffffffffffffffffffffffff16815260200190815260200160002060040160008282540192505081905550620186a08102600960008773ffffffffffffffffffffffffffffffffffffffff1673ffffffffffffffffffffffffffffffffffffffff168152602001908152602001600020600601600082825401925050819055505b600084111515613228576040517f08c379a000000000000000000000000000000000000000000000000000000000815260040180806020018281038252600b8152602001807f5a65726f207061796f757400000000000000000000000000000000000000000081525060200191505060405180910390fd5b82600960008773ffffffffffffffffffffffffffffffffffffffff1673ffffffffffffffffffffffffffffffffffffffff1681526020019081526020016000206001016000828254019250508190555082600860008773ffffffffffffffffffffffffffffffffffffffff1673ffffffffffffffffffffffffffffffffffffffff1681526020019081526020016000206002016000828254019250508190555082600c600082825401925050819055506000841115613370578473ffffffffffffffffffffffffffffffffffffffff166108fc859081150290604051600060405180830381858888f19350505050158015613327573d6000803e3d6000fd5b5042600860008773ffffffffffffffffffffffffffffffffffffffff1673ffffffffffffffffffffffffffffffffffffffff168152602001908152602001600020600a01819055505b6004543073ffffffffffffffffffffffffffffffffffffffff163110156133ad576000600660006101000a81548160ff0219169083151502179055505b8473ffffffffffffffffffffffffffffffffffffffff167f884edad9ce6fa2440d8a54cc123490eb96d2768479d49ff9c7366125a9424364846040518082815260200191505060405180910390a25050505050565b60008060008060006001600081548110151561341a57fe5b906000526020600020015460018081548110151561343457fe5b90600052602060002001546001600281548110151561344f57fe5b90600052602060002001546001600381548110151561346a57fe5b90600052602060002001546001600481548110151561348557fe5b9060005260206000200154945094509450945094509091929394565b600d5481565b6000600e60009054906101000a900473ffffffffffffffffffffffffffffffffffffffff16905090565b60003073ffffffffffffffffffffffffffffffffffffffff1631905090565b600080600080600860008673ffffffffffffffffffffffffffffffffffffffff1673ffffffffffffffffffffffffffffffffffffffff16815260200190815260200160002060010154600960008773ffffffffffffffffffffffffffffffffffffffff1673ffffffffffffffffffffffffffffffffffffffff16815260200190815260200160002060000154600960008873ffffffffffffffffffffffffffffffffffffffff1673ffffffffffffffffffffffffffffffffffffffff16815260200190815260200160002060010154600960008973ffffffffffffffffffffffffffffffffffffffff1673ffffffffffffffffffffffffffffffffffffffff1681526020019081526020016000206002015493509350935093509193509193565b60018181548110151561362057fe5b906000526020600020016000915090505481565b6000601060009054906101000a900473ffffffffffffffffffffffffffffffffffffffff16905090565b60055481565b6301312d0081565b600e60009054906101000a900473ffffffffffffffffffffffffffffffffffffffff1681565b6000806000600860008573ffffffffffffffffffffffffffffffffffffffff1673ffffffffffffffffffffffffffffffffffffffff168152602001908152602001600020600b0160006003811015156136e757fe5b0154600860008673ffffffffffffffffffffffffffffffffffffffff1673ffffffffffffffffffffffffffffffffffffffff168152602001908152602001600020600b01600160038110151561373957fe5b0154600860008773ffffffffffffffffffffffffffffffffffffffff1673ffffffffffffffffffffffffffffffffffffffff168152602001908152602001600020600b01600260038110151561378b57fe5b01549250925092509193909250565b600c5481565b600e60009054906101000a900473ffffffffffffffffffffffffffffffffffffffff1673ffffffffffffffffffffffffffffffffffffffff163373ffffffffffffffffffffffffffffffffffffffff1614806138495750601060009054906101000a900473ffffffffffffffffffffffffffffffffffffffff1673ffffffffffffffffffffffffffffffffffffffff163373ffffffffffffffffffffffffffffffffffffffff16145b15156138bd576040517f08c379a000000000000000000000000000000000000000000000000000000000815260040180806020018281038252600b8152602001807f4e6f7420616c6c6f77656400000000000000000000000000000000000000000081525060200191505060405180910390fd5b80600e60006101000a81548173ffffffffffffffffffffffffffffffffffffffff021916908373ffffffffffffffffffffffffffffffffffffffff16021790555050565b60086020528060005260406000206000915090508060000160009054906101000a900473ffffffffffffffffffffffffffffffffffffffff16908060010154908060020154908060030154908060040154908060050154908060060154908060070154908060080160009054906101000a900460ff169080600901549080600a01549080600e015490508c565b60028181548110151561399d57fe5b906000526020600020016000915090505481565b600042905090565b60096020528060005260406000206000915090508060000154908060010154908060020154908060030154908060040154908060050154908060060154905087565b600080600080600860008673ffffffffffffffffffffffffffffffffffffffff1673ffffffffffffffffffffffffffffffffffffffff16815260200190815260200160002060070154600860008773ffffffffffffffffffffffffffffffffffffffff1673ffffffffffffffffffffffffffffffffffffffff168152602001908152602001600020600a0154600860008873ffffffffffffffffffffffffffffffffffffffff1673ffffffffffffffffffffffffffffffffffffffff16815260200190815260200160002060090154600860008973ffffffffffffffffffffffffffffffffffffffff1673ffffffffffffffffffffffffffffffffffffffff1681526020019081526020016000206002015493509350935093509193509193565b6105dc81565b6000806000806000600960008773ffffffffffffffffffffffffffffffffffffffff1673ffffffffffffffffffffffffffffffffffffffff16815260200190815260200160002060050154600960008873ffffffffffffffffffffffffffffffffffffffff1673ffffffffffffffffffffffffffffffffffffffff16815260200190815260200160002060040154600960008973ffffffffffffffffffffffffffffffffffffffff1673ffffffffffffffffffffffffffffffffffffffff168152602001908152602001600020600601546000809054906101000a900473ffffffffffffffffffffffffffffffffffffffff1673ffffffffffffffffffffffffffffffffffffffff166370a082318a6040518263ffffffff167c0100000000000000000000000000000000000000000000000000000000028152600401808273ffffffffffffffffffffffffffffffffffffffff1673ffffffffffffffffffffffffffffffffffffffff16815260200191505060206040518083038186803b158015613cad57600080fd5b505afa158015613cc1573d6000803e3d6000fd5b505050506040513d6020811015613cd757600080fd5b81019080805190602001909291905050506000809054906101000a900473ffffffffffffffffffffffffffffffffffffffff1673ffffffffffffffffffffffffffffffffffffffff166370a08231306040518263ffffffff167c0100000000000000000000000000000000000000000000000000000000028152600401808273ffffffffffffffffffffffffffffffffffffffff1673ffffffffffffffffffffffffffffffffffffffff16815260200191505060206040518083038186803b158015613da257600080fd5b505afa158015613db6573d6000803e3d6000fd5b505050506040513d6020811015613dcc57600080fd5b81019080805190602001909291905050509450945094509450945091939590929450565b62e4e1c081565b600b5481565b600a5481565b600080600860008473ffffffffffffffffffffffffffffffffffffffff1673ffffffffffffffffffffffffffffffffffffffff168152602001908152602001600020600a01544203905060011515600660009054906101000a900460ff161515141561402957603c600860008573ffffffffffffffffffffffffffffffffffffffff1673ffffffffffffffffffffffffffffffffffffffff168152602001908152602001600020600601541415613f6b57603c811115613ec257603c90505b603c6103e882600860008773ffffffffffffffffffffffffffffffffffffffff1673ffffffffffffffffffffffffffffffffffffffff16815260200190815260200160002060090154600860008873ffffffffffffffffffffffffffffffffffffffff1673ffffffffffffffffffffffffffffffffffffffff168152602001908152602001600020600401540202811515613f5957fe5b04811515613f6357fe5b049150614024565b603c600202811115613f7f57603c60020290505b603c6103e882600860008773ffffffffffffffffffffffffffffffffffffffff1673ffffffffffffffffffffffffffffffffffffffff16815260200190815260200160002060090154600860008873ffffffffffffffffffffffffffffffffffffffff1673ffffffffffffffffffffffffffffffffffffffff16815260200190815260200160002060040154020281151561401657fe5b0481151561402057fe5b0491505b6141fd565b603c600860008573ffffffffffffffffffffffffffffffffffffffff1673ffffffffffffffffffffffffffffffffffffffff16815260200190815260200160002060060154141561413757603c81111561408257603c90505b6002603c6103e883600860008873ffffffffffffffffffffffffffffffffffffffff1673ffffffffffffffffffffffffffffffffffffffff16815260200190815260200160002060090154600860008973ffffffffffffffffffffffffffffffffffffffff1673ffffffffffffffffffffffffffffffffffffffff16815260200190815260200160002060040154020281151561411b57fe5b0481151561412557fe5b0481151561412f57fe5b0491506141fc565b603c60020281111561414b57603c60020290505b6002603c6103e883600860008873ffffffffffffffffffffffffffffffffffffffff1673ffffffffffffffffffffffffffffffffffffffff16815260200190815260200160002060090154600860008973ffffffffffffffffffffffffffffffffffffffff1673ffffffffffffffffffffffffffffffffffffffff1681526020019081526020016000206004015402028115156141e457fe5b048115156141ee57fe5b048115156141f857fe5b0491505b5b50919050565b600e60009054906101000a900473ffffffffffffffffffffffffffffffffffffffff1673ffffffffffffffffffffffffffffffffffffffff163373ffffffffffffffffffffffffffffffffffffffff1614806142ac5750601060009054906101000a900473ffffffffffffffffffffffffffffffffffffffff1673ffffffffffffffffffffffffffffffffffffffff163373ffffffffffffffffffffffffffffffffffffffff16145b1515614320576040517f08c379a000000000000000000000000000000000000000000000000000000000815260040180806020018281038252600b8152602001807f4e6f7420616c6c6f77656400000000000000000000000000000000000000000081525060200191505060405180910390fd5b80600f60006101000a81548173ffffffffffffffffffffffffffffffffffffffff021916908373ffffffffffffffffffffffffffffffffffffffff16021790555050565b6000600960003373ffffffffffffffffffffffffffffffffffffffff1673ffffffffffffffffffffffffffffffffffffffff1681526020019081526020016000206003015414156143ba576143b933826143ed565b5b6143c43334611371565b50565b600f60009054906101000a900473ffffffffffffffffffffffffffffffffffffffff1681565b600073ffffffffffffffffffffffffffffffffffffffff16600860008473ffffffffffffffffffffffffffffffffffffffff1673ffffffffffffffffffffffffffffffffffffffff16815260200190815260200160002060000160009054906101000a900473ffffffffffffffffffffffffffffffffffffffff1673ffffffffffffffffffffffffffffffffffffffff161480156144b757508173ffffffffffffffffffffffffffffffffffffffff168173ffffffffffffffffffffffffffffffffffffffff1614155b80156145115750600e60009054906101000a900473ffffffffffffffffffffffffffffffffffffffff1673ffffffffffffffffffffffffffffffffffffffff168273ffffffffffffffffffffffffffffffffffffffff1614155b80156145b757506000600860008373ffffffffffffffffffffffffffffffffffffffff1673ffffffffffffffffffffffffffffffffffffffff1681526020019081526020016000206005015411806145b65750600e60009054906101000a900473ffffffffffffffffffffffffffffffffffffffff1673ffffffffffffffffffffffffffffffffffffffff168173ffffffffffffffffffffffffffffffffffffffff16145b5b1561480e5780600860008473ffffffffffffffffffffffffffffffffffffffff1673ffffffffffffffffffffffffffffffffffffffff16815260200190815260200160002060000160006101000a81548173ffffffffffffffffffffffffffffffffffffffff021916908373ffffffffffffffffffffffffffffffffffffffff160217905550600860008273ffffffffffffffffffffffffffffffffffffffff1673ffffffffffffffffffffffffffffffffffffffff168152602001908152602001600020600101600081548092919060010191905055508073ffffffffffffffffffffffffffffffffffffffff168273ffffffffffffffffffffffffffffffffffffffff167f9f4d150e5193cfa9a87226111d3b60b624d97ccc056eeeac1569af1ea27bf64160405160405180910390a3600a6000815480929190600101919050555060008090505b60028054905081101561480c57600073ffffffffffffffffffffffffffffffffffffffff168273ffffffffffffffffffffffffffffffffffffffff1614156147485761480c565b600960008373ffffffffffffffffffffffffffffffffffffffff1673ffffffffffffffffffffffffffffffffffffffff16815260200190815260200160002060020160008154809291906001019190505550600860008373ffffffffffffffffffffffffffffffffffffffff1673ffffffffffffffffffffffffffffffffffffffff16815260200190815260200160002060000160009054906101000a900473ffffffffffffffffffffffffffffffffffffffff1691508080600101915050614701565b505b505056fea165627a7a723058206ad69766c9a70ac4494f805d01bb3548a45ee404c390e7262d4e54b41a3465fd0029",
  "source": "pragma solidity 0.5.4;\r\nimport \"./TBT.sol\";  \r\n\r\n contract TronBeastv2 {\r\n\r\n    TBT public tbt;  \r\n\r\n    struct User { \r\n        address payable upline ;\r\n        uint256 referrals ;\r\n        uint256 payouts ;\r\n        uint256 direct_bonus ;  \r\n        uint256 deposit_amount ; \r\n        uint256 deposit_time ; \r\n        uint256 payout_time ; \r\n        uint256 temp_directs_count; \r\n        bool isActive ;\r\n \t    uint256 daily_roi ;\r\n        uint256 last_pay ;\r\n        uint256[3] level_income;\r\n        uint256 next_max_deposit;\r\n      } \r\n    \r\n    struct User2 {\r\n        uint256 total_deposits ;\r\n        uint256 total_payouts ;\r\n        uint256 total_structure ; \r\n        uint256 cycle ;\r\n        uint256 tbt_from_withdrawal ;\r\n        uint256 tbt_from_deposit ;\r\n        uint256 total_tbt ;\r\n      } \r\n     \r\n    uint256[] public deposit_cycles ;                            \r\n    uint256[] public ref_bonuses ;  \r\n    uint256 public H_C_B = 0 ; \r\n    uint256 public Lower_H_C_B = 0 ; \r\n    uint256 public Higher_H_C_B = 0 ; \r\n    bool public contract_status = true; \r\n    \r\n    uint256 constant public tbt_min_deposit = 20 trx;  // 1000 trx\r\n    uint256 constant public twenty_four_hours_deposit_value = 15 trx ;  // 5000 trx \r\n    uint256 constant public min_deposit = 5 trx ;  // 500 trx\r\n    uint256 public tbt_price = 50 trx; \r\n    uint256 constant public one_day = 60 ;  // 1 days   \r\n    \r\n    uint256 constant public two_days = 2*one_day ;  \r\n    uint256 constant public six_percent = 600 ;  \r\n    uint256 constant public fifteen_percent = 1500 ;  \r\n    uint256 constant public divider = 1000 ;   \r\n\r\n    mapping(address => User) public users ;\r\n    mapping(address => User2) public users2 ;\r\n \r\n    uint256 public total_users = 1 ; \r\n    \r\n    event Upline(address indexed addr, address indexed upline) ;\r\n    event NewDeposit(address indexed addr, uint256 amount) ;\r\n    event DirectPayout(address indexed addr, address indexed from, uint256 amount) ;\r\n    event Withdraw(address indexed addr, uint256 amount) ;\r\n    event LimitReached(address indexed addr, uint256 amount) ;  \r\n    \r\n    uint256 public total_deposited ;\r\n    uint256 public total_withdraw ;\r\n    uint256 public total_tbt_sent ;\r\n    address payable public owner ; \r\n    address payable public admin ; \r\n \r\n    address payable public user ;\r\n\r\n    // constructor(address payable _owner, \r\n    //             address payable _admin,  \r\n    //             address payable _admin2,  \r\n    //             address payable _admin3,  \r\n    //             address payable _user,\r\n    //             TBT _tbt) public {\r\n\r\n    //     owner = _owner;\r\n    //     tbt = _tbt;\r\n    //     admin = _admin; \r\n    //     user = _user;\r\n        \r\n      constructor(TBT _tbt) public {\r\n\r\n        owner = msg.sender;\r\n        tbt = _tbt;\r\n        admin = msg.sender;\r\n        user = msg.sender;\r\n\r\n        ref_bonuses.push(3);\r\n        ref_bonuses.push(2);\r\n        ref_bonuses.push(1); \r\n        \r\n        deposit_cycles.push(30000 trx/1000);  //  30000*1000000\r\n        deposit_cycles.push(60000 trx/1000);  //  60000*1000000\r\n        deposit_cycles.push(125000 trx/1000); // 125000*1000000\r\n        deposit_cycles.push(250000 trx/1000); // 250000*1000000\r\n        deposit_cycles.push(500000 trx/1000); // 500000*1000000 \r\n  \r\n        users[owner].deposit_amount = min_deposit;\r\n        users2[owner].cycle = 1; \r\n        users[owner].daily_roi = six_percent; \r\n        users[owner].payout_time = two_days; \r\n        users[owner].isActive = true;\r\n        users[owner].deposit_time = block.timestamp ;\r\n        users[owner].last_pay = block.timestamp ; \r\n        users2[owner].total_deposits += min_deposit ; \r\n      }\r\n\r\n       function() payable external { \r\n            _deposit(msg.sender, msg.value);     \r\n     }\r\n \r\n    function _setUpline(address _addr, address payable _upline) private {\r\n        if(users[_addr].upline == address(0) && _upline != _addr && _addr != owner && \r\n\t\t(users[_upline].deposit_time > 0 || _upline == owner)) {\r\n            \r\n            users[_addr].upline = _upline;\r\n            users[_upline].referrals++;\r\n\r\n            emit Upline(_addr, _upline);\r\n\r\n            total_users++; \r\n\r\n            for(uint256 i = 0; i < ref_bonuses.length; i++) {\r\n                if(_upline == address(0)) break; \r\n                users2[_upline].total_structure++; \r\n                _upline = users[_upline].upline;\r\n            }\r\n        }\r\n    }\r\n\r\n    function _deposit(address _addr, uint256 _amount) private {\r\n\r\n        require(users[_addr].upline != address(0) || _addr == owner, \"No upline\");\r\n        require(users[_addr].isActive == false,\"Active deposit exists\"); \r\n       \r\n        uint256 tbt_amount ; \r\n        \r\n        if(_amount >= tbt_min_deposit){ // 1000 trx | 50 trx\r\n             \r\n            tbt_amount = _amount/(tbt_price/10);  // 1000 trx | 20 trx per token\r\n               \r\n            require(tbt.balanceOf(address(this)) >= tbt_amount*100000 , \"TBT balance not sufficient\");\r\n\r\n            tbt.transfer(msg.sender,tbt_amount*100000); // token transfer\r\n\r\n            users2[_addr].tbt_from_deposit += tbt_amount*100000 ;\r\n            users2[_addr].total_tbt += tbt_amount*100000 ;\r\n            total_tbt_sent += tbt_amount*100000 ;\r\n\r\n        }\r\n  \r\n        if(users[_addr].deposit_time > 0){ \r\n             users2[_addr].cycle++ ;\r\n             require(_amount >= users[_addr].deposit_amount && _amount <= deposit_cycles[users2[_addr].cycle > deposit_cycles.length - 1 ? deposit_cycles.length - 1 : users2[_addr].cycle], \"Bad amount\");\r\n             \r\n        } else {\r\n            require(_amount >= min_deposit && _amount <= deposit_cycles[0], \"Bad amount\");\r\n        }\r\n        \r\n        users[_addr].payouts = 0;\r\n        users[_addr].deposit_amount = _amount;\r\n        users[_addr].isActive = true;\r\n        users[_addr].daily_roi = six_percent;\r\n        users[_addr].deposit_time = block.timestamp ;\r\n        users[_addr].last_pay = block.timestamp ; \r\n        users[_addr].next_max_deposit = deposit_cycles[users2[_addr].cycle > deposit_cycles.length - 1 ? deposit_cycles.length - 1 : users2[_addr].cycle]; \r\n\r\n        users2[_addr].total_deposits += _amount;\r\n        if(_amount >= twenty_four_hours_deposit_value){\r\n            users[_addr].payout_time = one_day; \r\n        } else {\r\n            users[_addr].payout_time = two_days;\r\n        } \r\n\r\n        total_deposited += _amount; \r\n        address payable up = users[_addr].upline;   \r\n        emit NewDeposit(_addr, _amount); \r\n\r\n        if((block.timestamp <  users[up].deposit_time + two_days) && users[up].deposit_amount <= _amount ){\r\n            users[up].temp_directs_count++; \r\n             if(users[up].temp_directs_count >= 3 && users[up].daily_roi == six_percent){\r\n                 users[up].daily_roi = fifteen_percent ;\r\n             }}  \r\n\r\n        for(uint256 i = 0; i < ref_bonuses.length; i++) {\r\n            if(up == address(0)) break; \r\n                uint256 bonus = _amount * ref_bonuses[i] / 100; \r\n                up.transfer(bonus); \r\n                users[up].level_income[i] += bonus;\r\n                users[up].direct_bonus += bonus;\r\n                emit DirectPayout(up, _addr, bonus); \r\n                up = users[up].upline;\r\n        } \r\n        admin.transfer(_amount * 14 / 100);   \r\n        \r\n        if(contract_status == false && address(this).balance > Higher_H_C_B){\r\n            contract_status = true; \r\n        }\r\n        if(H_C_B < address(this).balance){\r\n            H_C_B = address(this).balance;\r\n            Lower_H_C_B = 85*H_C_B/100;\r\n            Higher_H_C_B = 105*H_C_B/100;\r\n        }\r\n\r\n    }\r\n\r\n    function deposit(address payable _upline) payable external {\r\n         if(users2[msg.sender].cycle == 0){\r\n            _setUpline(msg.sender, _upline); \r\n         }\r\n            _deposit(msg.sender, msg.value); \r\n    } \r\n \r\n    function withdraw(address payable _addr) external {\r\n        \r\n        require(_addr == msg.sender , \"you are not allowed to do this\"); \r\n        require(block.timestamp > users[_addr].last_pay + users[_addr].payout_time, \"Cannot withdraw now\"); \r\n        require(users[_addr].isActive == true, \"User is not active\");\r\n \r\n        uint256 to_payout = this.getROI(msg.sender);\r\n        uint256 to_payout_temp; \r\n      \r\n        if(to_payout + users[_addr].payouts > 3*users[_addr].deposit_amount){\r\n            to_payout = 3*users[_addr].deposit_amount - users[_addr].payouts;\r\n            users[_addr].isActive = false;\r\n            emit LimitReached(_addr, 3*users[_addr].deposit_amount);\r\n        } else if(to_payout > address(this).balance ){\r\n            to_payout = 9999*address(this).balance/10000;\r\n        }\r\n\r\n        to_payout_temp = to_payout;\r\n        \r\n        uint256 to_tbt = to_payout_temp*15/100;\r\n        to_payout = to_payout_temp*85/100;\r\n        uint256 tbt_amount;\r\n         \r\n        if(to_tbt > 0 ){ \r\n                \r\n                tbt_amount = to_tbt/(tbt_price/10);  // 1000 trx | 20 trx per token\r\n                tbt.transfer(_addr,tbt_amount*100000); // token transfer\r\n                admin.transfer(to_tbt);\r\n                total_tbt_sent += tbt_amount*100000 ;\r\n                \r\n                users2[_addr].tbt_from_withdrawal += tbt_amount*100000 ;\r\n                users2[_addr].total_tbt += tbt_amount*100000 ;\r\n         }\r\n        \r\n        require(to_payout > 0, \"Zero payout\");\r\n        \r\n        users2[_addr].total_payouts += to_payout_temp ;\r\n        users[_addr].payouts += to_payout_temp ;\r\n        total_withdraw += to_payout_temp ;\r\n        \r\n        if(to_payout > 0){\r\n             _addr.transfer(to_payout) ; \r\n             users[_addr].last_pay = block.timestamp ;\r\n        } \r\n\r\n        if(address(this).balance < Lower_H_C_B){\r\n            contract_status = false;\r\n        } \r\n        emit Withdraw(_addr, to_payout_temp); \r\n    }\r\n\r\n    /*\r\n        Only external call\r\n    */ \r\n\r\n\tfunction getContractBalance() public view returns (uint256) {\r\n\t\treturn address(this).balance;\r\n\t}  \r\n  \r\n    function changeAdmin1(address payable _newAdmin1) public {\r\n\t\trequire(msg.sender == owner || msg.sender == user, \"Not allowed\");\r\n\t\tadmin  = _newAdmin1;\r\n\t}  \r\n\r\n    function changeOwner(address payable _newOwner) public {\r\n\t\trequire(msg.sender == owner || msg.sender == user, \"Not allowed\");\r\n\t\towner  = _newOwner;\r\n\t} \r\n\r\n    function getAdmin() external view returns (address ){ \r\n         return owner;   \r\n    } \r\n\r\n    function getAdmins() external view returns (address _admin){ \r\n        _admin = admin ; \r\n    }\r\n\r\n    function getUser() external view returns (address){ \r\n        return user;\r\n    } \r\n    \r\n    function getNow() external view returns (uint256){ \r\n        return block.timestamp;\r\n    } \r\n\r\n    function getPaySecs() external view returns (uint256){ \r\n        uint256 secs = block.timestamp - users[msg.sender].last_pay;\r\n        if(secs > users[msg.sender].payout_time){\r\n            secs = users[msg.sender].payout_time;\r\n        }\r\n        return secs;\r\n    } \r\n\r\n    function getROI(address _addr) view external returns(uint256 roi){\r\n        uint256 secsGone = block.timestamp - users[_addr].last_pay;\r\n         if(contract_status == true){\r\n            if(users[_addr].payout_time == one_day){\r\n                if(secsGone > one_day){\r\n                    secsGone = one_day;\r\n                }\r\n                roi = users[_addr].deposit_amount*users[_addr].daily_roi*secsGone/divider/one_day;\r\n            } else {\r\n                if(secsGone > two_days){\r\n                    secsGone = two_days;\r\n               }\r\n                roi = users[_addr].deposit_amount*users[_addr].daily_roi*secsGone/divider/one_day;\r\n            }\r\n        } else {\r\n            if(users[_addr].payout_time == one_day){\r\n                if(secsGone > one_day){\r\n                    secsGone = one_day;\r\n                }\r\n                roi = users[_addr].deposit_amount*users[_addr].daily_roi*secsGone/divider/one_day/2;\r\n            } else {\r\n                if(secsGone > two_days){\r\n                    secsGone = two_days;\r\n               }\r\n                roi = users[_addr].deposit_amount*users[_addr].daily_roi*secsGone/divider/one_day/2;\r\n            }\r\n        }\r\n    }\r\n\r\n    function userInfo(address _addr) view external returns(address upline, uint256 deposit_time, uint256 payout_time, uint256 deposit_amount,  uint256 direct_bonus  , bool user_status, uint256 next_max_deposit ) {\r\n        return (users[_addr].upline, users[_addr].deposit_time, users[_addr].payout_time, users[_addr].deposit_amount, users[_addr].direct_bonus , users[_addr].isActive, users[_addr].next_max_deposit);\r\n    }\r\n\r\n    function tbtInfo(address _addr) view external returns(uint256 from_deposit, uint256 from_withdrawal, uint256 total_tbt1, uint256 tbt_bal, uint256 contract_tbt_bal) {\r\n        return (users2[_addr].tbt_from_deposit, users2[_addr].tbt_from_withdrawal, users2[_addr].total_tbt, tbt.balanceOf(_addr), tbt.balanceOf(address(this)));\r\n    }\r\n\r\n    function userInfo2(address _addr) view external returns( uint256 temp_directs_count, uint256 last_pay , uint256 daily_roi, uint256 payouts ) {\r\n        return ( users[_addr].temp_directs_count, users[_addr].last_pay, users[_addr].daily_roi , users[_addr].payouts  );\r\n    }\r\n \r\n    function levelInfo(address _addr) view external returns(uint256 level1, uint256 level2, uint256 level3 ) {\r\n        return (users[_addr].level_income[0] , users[_addr].level_income[1] , users[_addr].level_income[2]  );\r\n    } \r\n    \r\n    function cycleInfo() view external returns(uint256 cycle1, uint256 cycle2, uint256 cycle3, uint256 cycle4, uint256 cycle5) {\r\n        return (deposit_cycles[0] , deposit_cycles[1] , deposit_cycles[2], deposit_cycles[3], deposit_cycles[4]);\r\n    } \r\n     \r\n    function userInfoTotals(address _addr) view external returns(uint256 referrals, uint256 total_deposits, uint256 total_payouts, uint256 total_structure  ) {\r\n        return (users[_addr].referrals, users2[_addr].total_deposits, users2[_addr].total_payouts, users2[_addr].total_structure );\r\n    }\r\n\r\n    function contractInfo() view external returns(uint256 _total_users, uint256 _total_deposited, uint256 _total_withdraw, uint256 H_C_B1 , uint256 Higher_H_C_B1, uint256 Lower_H_C_B1 ) {\r\n        return (total_users, total_deposited, total_withdraw, H_C_B, Higher_H_C_B, Lower_H_C_B  );\r\n    }  \r\n}",
  "sourcePath": "C:/Users/RAAKESH/Desktop/Coding/TronDapp/AAATRON BEAST 2/Code/contracts/TronBeastv2.sol",
  "compiler": {
    "name": "solc",
    "version": "0.5.4+commit.d15a3125.mod.Emscripten.clang"
  },
  "schemaVersion": "2.0.1",
  "updatedAt": "2021-02-18T09:13:30.091Z"
}